:040000002DEF2FF0C1
:101000000000000000DCCFD1350000000000C0155A
:101010003F6042A20D70A5EC363BAAB83F4F387630
:101020003F3CAA38338CBEBF350072313F18723155
:101030003F4CBB31330EEADDB555B38A38610B3610
:10104000BBABAA2A3E42F1533E55326C3E05A38B00
:101050003EABAAAA3EB76DDB3E9A99193F6042A209
:101060000DCAF249710000804B0000803F0000C0B3
:101070003F00AAB83FC623F6B80040763F4E4F2047
:101080004F462053544550533A303000494E564154
:101090004C4944204F5054494F4E00463A304E3A46
:1010A00030503A300048656C6C6F004D454E55002D
:0F10B0003030303000503A00533A00573A0000C9
:1010C00084C0B8F185C0B9F186C0BAF187C0BBF160
:1010D000B8C160F1B9C161F1BAC162F1BBC163F1DC
:1010E00088C0B8F189C0B9F18AC0BAF18BC0BBF130
:1010F000B8C184F1B9C185F1BAC186F1BBC187F12C
:10110000FF0E01016015A86FFF0E6115A96FFF0E9C
:101110006215AA6F7F0E6315AB6FFF0E8415986F73
:10112000FF0E8515996FFF0E86159A6F7F0E871536
:101130009B6F985199119A119B11D8A4A2EF08F0B6
:10114000A4EF08F0AFEF08F0000E0001846F000E6E
:10115000856F800E866F3F0E876FDBEF1CF0800E71
:10116000621909E13F0E631960116111D8A4BBEF48
:1011700008F0BDEF08F0C8EF08F0000E0001846F22
:10118000000E856F800E866F3F0E876FDBEF1CF0C1
:10119000ABBFD9EF08F0A805000EA959800EAA59D7
:1011A0007F0EAB59D8B0D7EF08F0D9EF08F0EAEFCF
:1011B00008F09BBFE8EF08F09805000E9959800EE3
:1011C0009A597F0E9B59D8A0E8EF08F0EAEF08F093
:1011D00006EF09F084C001F085C002F086C003F07C
:1011E00087C004F088C005F089C006F08AC007F007
:1011F0008BC008F023EC22F001C084F002C085F01F
:1012000003C086F004C087F0DBEF1CF0000E506FC7
:10121000000E516F000E526F000E536F63BF15EF3B
:1012200009F013EF09F0C0EF09F09BBF21EF09F0BF
:10123000800E9A5D4B0E9B59D8A021EF09F023EF49
:1012400009F02DEF09F0020E506F000E516F000EE5
:10125000526F000E536FC0EF09F09BBF39EF09F0DA
:10126000800E9A5D3F0E9B59D8A039EF09F03BEFF5
:1012700009F0C0EF09F0170E4B6E98C14CF099C100
:101280004DF09AC14EF09BC14FF04B664AEF09F00A
:1012900052EF09F04F344F324E324D324C324B2E1A
:1012A00045EF09F0810E4C240101A06FFF0E4D2087
:1012B000A16FFF0E4E20A26FFF0E4F20A36FA05113
:1012C00017084B6E98C14CF099C14DF09AC14EF081
:1012D0009BC14FF04B666FEF09F077EF09F04F3489
:1012E0004F324E324D324C324B2E6AEF09F04CC029
:1012F000ACF14DC0ADF14EC0AEF14FC0AFF1010148
:10130000A05117084B6EACC14CF0ADC14DF0AEC151
:101310004EF0AFC14FF04B2A93EF09F0D8904C3606
:101320004D364E364F364B2E8EEF09F098514C18F5
:101330000DE199514D180AE19A514E1807E19B5160
:101340004F18D8A4A6EF09F0A8EF09F0C0EF09F0F4
:10135000010EAC154B6E000EAD154C6E000EAE15A9
:101360004D6E000EAF154E6E4B500208506F000EC2
:101370004C54516F000E4D54526F000E4E54536F2B
:10138000800E9A1909E17F0E9B1998119911D8A422
:10139000CCEF09F0CEEF09F03AEF0AF0800EAA196F
:1013A00009E13F0EAB19A811A911D8A4DAEF09F091
:1013B000DCEF09F0E7EF09F0000E0001846F000E8A
:1013C000856F800E866F3F0E876FDBEF1CF0ABBF23
:1013D000F6EF09F0A805000EA959800EAA593F0E94
:1013E000AB59D8A0F6EF09F0F8EF09F014EF0AF0C6
:1013F00087BFFFEF09F0FDEF09F00AEF0AF0000EDA
:101400000001846F000E856F000E866F000E876FDF
:10141000DBEF1CF088C084F089C085F08AC086F0BC
:101420008BC087F0DBEF1CF087BF1BEF0AF019EFD2
:101430000AF02FEF0AF088C001F089C002F08AC0DC
:1014400003F08BC004F098EC30F001C084F002C0CF
:1014500085F003C086F004C087F0DBEF1CF0000EBF
:101460000001846F000E856F000E866F000E876F7F
:10147000DBEF1CF0800E9A1909E13F0E9B199811C1
:101480009911D8A446EF0AF048EF0AF075EF0AF078
:1014900087BF4FEF0AF04DEF0AF06BEF0AF0000E36
:1014A000326E000E336E800E346E3F0E356E84C089
:1014B00036F085C037F086C038F087C039F098EC38
:1014C00026F032C084F033C085F034C086F035C0D9
:1014D00087F0DBEF1CF084C084F085C085F086C007
:1014E00086F087C087F0DBEF1CF0400E871984116F
:1014F00085118611D8A47FEF0AF081EF0AF09DEFE5
:101500000AF084C011F085C012F086C013F087C0C5
:1015100014F084C015F085C016F086C017F087C09F
:1015200018F083EC24F011C084F012C085F013C0D1
:1015300086F014C087F0DBEF1CF03F0E8719841192
:1015400085118611D8A4A7EF0AF0A9EF0AF0C4EF1D
:101550000AF063BFAEEF0AF0B0EF0AF0C4EF0AF092
:1015600084C03EF085C03FF086C040F087C041F0A7
:10157000C3EC1FF03EC084F03FC085F040C086F051
:1015800041C087F0DBEF1CF084C001F085C002F0A1
:1015900086C003F087C004F0B4EC30F001C070F1F5
:1015A00002C071F103C072F104C073F1800E010139
:1015B000AA190BE17F0EAB19A811A911D8B4E3EF5A
:1015C0000AF0E5EF0AF0FEEF0AF0A851A911AA11FE
:1015D000AB11D8B4EEEF0AF0F0EF0AF0FEEF0AF02C
:1015E000800EAA1909E13F0EAB19A811A911D8A4C0
:1015F000FCEF0AF0FEEF0AF0BEEF0BF070C1B4F1A1
:1016000071C1B5F172C1B6F173C1B7F187BF0DEF0A
:101610000BF00BEF0BF027EF0BF0000E326E000E0D
:10162000336E800E346E3F0E356EB4C136F0B5C1E8
:1016300037F0B6C138F0B7C139F098EC26F032C0B7
:10164000B4F133C0B5F134C0B6F135C0B7F1010122
:1016500063BF2FEF0BF02DEF0BF0B4EF0BF0000E8C
:10166000A8254B6E000EA9214C6E800EAA214D6E4E
:10167000C00EAB214E6E50514B104F6E51514C105D
:10168000506E52514D10516E53514E10526E4F507C
:10169000501051105210D8A450EF0BF052EF0BF035
:1016A00097EF0BF0000E0001B76F210EB66FB4C1BB
:1016B0002EF0B5C12FF0B6C130F0B7C131F0B4C1D2
:1016C0002AF0B5C12BF0B6C12CF0B7C12DF014EC47
:1016D00030F02AC032F02BC033F02CC034F02DC0D3
:1016E00035F0B4C12EF0B5C12FF0B6C130F0B7C19E
:1016F00031F0B4C12AF0B5C12BF0B6C12CF0B7C19E
:101700002DF014EC30F02AC036F02BC037F02CC08E
:1017100038F02DC039F098EC26F032C0B4F133C067
:10172000B5F134C0B6F135C0B7F1B4EF0BF05005E8
:10173000511152115311D8A4A0EF0BF0A2EF0BF0EE
:10174000B4EF0BF0B4C101F0B5C102F0B6C103F0C3
:10175000B7C104F098EC30F001C0B4F102C0B5F1AB
:1017600003C0B6F104C0B7F1B4C184F0B5C185F0CF
:10177000B6C186F0B7C187F0DBEF1CF0000E886FB2
:10178000000E896F800E8A6F3F0E8B6F63BFCDEFA7
:101790000BF0CBEF0BF030EF0CF050515111521118
:1017A0005311D8A4D6EF0BF0D8EF0BF01DEF0CF0CF
:1017B000000E0001B76F210EB66F84C02EF085C0F9
:1017C0002FF086C030F087C031F084C02AF085C089
:1017D0002BF086C02CF087C02DF014EC30F02AC01E
:1017E00032F02BC033F02CC034F02DC035F084C063
:1017F0002EF085C02FF086C030F087C031F084C055
:101800002AF085C02BF086C02CF087C02DF014EC98
:1018100030F02AC036F02BC037F02CC038F02DC085
:1018200039F098EC26F032C084F033C085F034C033
:1018300086F035C087F0DBEF1CF0500551115211D6
:101840005311D8A426EF0CF028EF0CF030EF0CF079
:10185000000E886F000E896F800E8A6FBF0E8B6F2F
:101860009BBF3FEF0CF09805000E9959000E9A5956
:101870004D0E9B59D8A03FEF0CF041EF0CF0C6EF96
:101880000EF0ABBF53EF0CF0F80EA85DFF0EA95998
:101890007F0EAA593F0EAB59D8B051EF0CF053EF61
:1018A0000CF0C6EF0CF087BF58EF0CF05AEF0CF0BD
:1018B00090EF0CF0600E156E420E166EA20E176EB3
:1018C0000D0E186E88C111F089C112F08AC113F093
:1018D0008BC114F083EC24F011C0A4F112C0A5F167
:1018E00013C0A6F114C0A7F1A4C111F0A5C112F054
:1018F000A6C113F0A7C114F0600E156E420E166E4D
:10190000A20E176E0D0E186E83EC24F011C084F039
:1019100012C085F013C086F014C087F0DBEF1CF016
:10192000CA0E156EF20E166E490E176E710E186EF7
:1019300088C111F089C112F08AC113F08BC114F073
:1019400083EC24F011C0A4F112C0A5F113C0A6F1DC
:1019500014C0A7F1A4C111F0A5C112F0A6C113F0E3
:10196000A7C114F0CA0E156EF20E166E490E176E50
:10197000710E186E83EC24F011C084F012C085F053
:1019800013C086F014C087F0DBEF1CF0ABBFD6EFBE
:101990000CF0080EA85D000EA959800EAA593F0E42
:1019A000AB59D8A0D6EF0CF0D8EF0CF053EF0DF0F8
:1019B00087BFE7EF0CF087518611851106E184059A
:1019C000D8B0E5EF0CF0E7EF0CF01DEF0DF0600E76
:1019D000156E420E166EA20E176E0D0E186E88C191
:1019E00011F089C112F08AC113F08BC114F083EC9D
:1019F00024F011C0A4F112C0A5F113C0A6F114C0C7
:101A0000A7F1A4C111F0A5C112F0A6C113F0A7C19E
:101A100014F0600E156E420E166EA20E176E0D0EAD
:101A2000186E83EC24F011C084F012C085F013C04E
:101A300086F014C087F0DBEF1CF0CA0E156EF20EB4
:101A4000166E490E176E710E186E88C111F089C19D
:101A500012F08AC113F08BC114F083EC24F011C092
:101A6000A4F112C0A5F113C0A6F114C0A7F1A4C13E
:101A700011F0A5C112F0A6C113F0A7C114F0CA0E4F
:101A8000156EF20E166E490E176E710E186E83ECFF
:101A900024F011C084F012C085F013C086F014C089
:101AA00087F0DBEF1CF070C101F071C102F072C170
:101AB00003F073C104F0000E056E000E066E800E7A
:101AC000076EBF0E086E23EC22F001C0B0F102C019
:101AD000B1F103C0B2F104C0B3F1000E156E000EF7
:101AE000166E800E176E3E0E186EB0C111F0B1C1A9
:101AF00012F0B2C113F0B3C114F083EC24F011C0A2
:101B00002EF012C02FF013C030F014C031F0AB0E25
:101B10002A6EAA0E2B6EAA0E2C6E3E0E2D6E14ECA3
:101B200030F02AC0A4F12BC0A5F12CC0A6F12DC025
:101B3000A7F1B0C115F0B1C116F0B2C117F0B3C131
:101B400018F0B0C111F0B1C112F0B2C113F0B3C1BD
:101B500014F083EC24F011C054F112C055F113C0FD
:101B600056F114C057F1B0C115F0B1C116F0B2C1B1
:101B700017F0B3C118F0A4C111F0A5C112F0A6C1AD
:101B800013F0A7C114F083EC24F011C02EF012C0A2
:101B90002FF013C030F014C031F0000E2A6E000E8A
:101BA0002B6E000E2C6E3F0E2D6E14EC30F02AC002
:101BB00048F12BC049F12CC04AF12DC04BF154C162
:101BC00011F055C112F056C113F057C114F048C1BD
:101BD00015F049C116F04AC117F04BC118F083EC5B
:101BE00024F011C044F112C045F113C046F114C0F5
:101BF00047F1B0C111F0B1C112F0B2C113F0B3C1DD
:101C000014F0000E156EAA0E166EB80E176E3F0E6B
:101C1000186E83EC24F011C074F112C075F113C07A
:101C200076F114C077F1700E156EA50E166EEC0EDF
:101C3000176E360E186EB0C111F0B1C112F0B2C1FC
:101C400013F0B3C114F083EC24F011C02AF012C0D9
:101C50002BF013C02CF014C02DF03B0E156EAA0E05
:101C6000166EB80E176E3F0E186E44C111F045C1C6
:101C700012F046C113F047C114F083EC24F011C0F8
:101C80002EF012C02FF013C030F014C031F014EC5D
:101C900030F02AC078F12BC079F12CC07AF12DC038
:101CA0007BF174C101F075C102F076C103F077C118
:101CB00004F078C105F079C106F07AC107F07BC164
:101CC00008F023EC22F001C080F102C081F103C0D2
:101CD00082F104C083F180C1B8F181C1B9F182C140
:101CE000BAF183C1BBF1B8C190F1B9C191F1BAC1E8
:101CF00092F1BBC193F1000E01019015B86FF00E87
:101D00009115B96FFF0E9215BA6FFF0E9315BB6F49
:101D1000B8C180F1B9C181F1BAC182F1BBC183F10F
:101D200074C12EF075C12FF076C130F077C131F05B
:101D300080C12AF081C12BF082C12CF083C12DF02B
:101D400014EC30F02AC094F12BC095F12CC096F120
:101D50002DC097F178C12AF079C12BF07AC12CF00F
:101D60007BC12DF094C12EF095C12FF096C130F0BB
:101D700097C131F014EC30F02AC01CF12BC01DF1DA
:101D80002CC01EF12DC01FF10EEF16F0000E7C6F5F
:101D9000000E7D6F000E7E6F000E7F6FABBFDCEF1D
:101DA0000EF0AB5107E1800EAA5DD8B0DAEF0EF06D
:101DB000DCEF0EF00FEF0FF070C111F071C112F0F7
:101DC00072C113F073C114F0000E156E000E166E82
:101DD000800E176E4B0E186E83EC24F011C070F15C
:101DE00012C071F113C072F114C073F1E80E010159
:101DF0007C27FF0E7D23FF0E7E23FF0E7F2370C105
:101E0000B8F171C1B9F172C1BAF173C1BBF1B8C116
:101E1000A8F1B9C1A9F1BAC1AAF1BBC1ABF1170EC2
:101E20004B6EA8C14CF0A9C14DF0AAC14EF0ABC198
:101E30004FF04B661EEF0FF026EF0FF04F344F328E
:101E40004E324D324C324B2E19EF0FF0810E4C2496
:101E5000506EFF0E4D20516EFF0E4E20526EFF0E43
:101E60004F20536E505001017C2751507D2352501A
:101E70007E2353507F23FF0EA815AC6FFF0EA915CC
:101E8000AD6F7F0EAA15AE6F000EAB15AF6F000ED3
:101E9000AC11A86F000EAD11A96F800EAE11AA6F24
:101EA0003F0EAF11AB6FAFBF65EF0FF0AF510BE15E
:101EB000720EAC5DC40EAD591C0EAE59D8B063EFB6
:101EC0000FF065EF0FF06FEF0FF0000EA06F000E38
:101ED000A16F000EA26F000EA36FA1EF0FF0AFBFB6
:101EE00081EF0FF0AF510BE1D70EAC5DB30EAD59E2
:101EF0005D0EAE59D8B07FEF0FF081EF0FF08BEF92
:101F00000FF0010EA06F000EA16F000EA26F000E69
:101F1000A36FA1EF0FF0000EA06F000EA16F000ED7
:101F2000A26F000EA36F010E7C27000E7D237E237F
:101F30007F23000EA827000EA923800EAA23FF0EE0
:101F4000AB23A8C1B8F1A9C1B9F1AAC1BAF1ABC11B
:101F5000BBF1B8C170F1B9C171F1BAC172F1BBC1C5
:101F600073F170C12AF071C12BF072C12CF073C1F2
:101F70002DF0A0C14BF0A1C14CF0D8904B364C369F
:101F8000D8904B364C36690E4B24F66E100E4C2012
:101F9000F76E0900F5CF2EF00900F5CF2FF00900FC
:101FA000F5CF30F00A00F5CF31F014EC30F02AC054
:101FB00074F12BC075F12CC076F12DC077F1000EB5
:101FC000326E000E336E800E346E3F0E356E70C171
:101FD00005F071C106F072C107F073C108F0A0C12D
:101FE0004BF0A1C14CF0D8904B364C36D8904B36C4
:101FF0004C36690E4B24F66E100E4C20F76E09001D
:10200000F5CF01F00900F5CF02F00900F5CF03F09C
:102010000A00F5CF04F023EC22F001C036F002C034
:1020200037F003C038F004C039F098EC26F032C025
:1020300078F133C079F134C07AF135C07BF174C1E5
:1020400011F075C112F076C113F077C114F078C1A8
:1020500015F079C116F07AC117F07BC118F083EC46
:1020600024F011C05CF112C05DF113C05EF114C028
:102070005FF15CC16CF15DC16DF15EC16EF15FC17C
:102080006FF16CC1B8F16DC1B9F16EC1BAF16FC138
:10209000BBF1B8C190F1B9C191F1BAC192F1BBC124
:1020A00093F1000E01019015B86FF00E9115B96F04
:1020B000FF0E9215BA6FFF0E9315BB6FB8C16CF18E
:1020C000B9C16DF1BAC16EF1BBC16FF1A8C14BF0DE
:1020D000A9C14CF0AAC14DF0ABC14EF04E344E3206
:1020E0004D324C324B32000E4B144F6EF00E4C14EE
:1020F000506EFF0E4D14516EFF0E4E14526E000EB8
:102100004F10906F000E5010916F000E5110926F93
:10211000200E5210936FA0C14BF0A1C14CF0A2C190
:102120004DF0A3C14EF0150ED8904B364C364D36BF
:102130004E36E82E94EF10F090514B244F6E915193
:102140004C20506E92514D20516E93514E20526E44
:10215000000E4F24B86F000E5020B96F400E512072
:10216000BA6F000E5220BB6FB8C168F1B9C169F1F6
:10217000BAC16AF1BBC16BF1A0C14BF0A1C14CF077
:10218000D8904B364C36D8904B364C36690E4B2493
:10219000F66E100E4C20F76E0900F5CF2EF00900F8
:1021A000F5CF2FF00900F5CF30F00A00F5CF31F070
:1021B00068C12AF069C12BF06AC12CF06BC12DF007
:1021C00014EC30F02AC094F12BC095F12CC096F19C
:1021D0002DC097F170C12AF071C12BF072C12CF0A3
:1021E00073C12DF094C12EF095C12FF096C130F03F
:1021F00097C131F014EC30F02AC034F12BC035F126
:102200002CC036F12DC037F168C115F069C116F048
:102210006AC117F06BC118F06CC111F06DC112F0FA
:102220006EC113F06FC114F083EC24F011C02EF0D6
:1022300012C02FF013C030F014C031F074C12AF076
:1022400075C12BF076C12CF077C12DF014EC30F075
:102250002AC094F12BC095F12CC096F12DC097F1B6
:1022600034C115F035C116F036C117F037C118F07A
:102270006CC111F06DC112F06EC113F06FC114F09A
:1022800083EC24F011C02EF012C02FF013C030F0F8
:1022900014C031F094C12AF095C12BF096C12CF0F6
:1022A00097C12DF014EC30F02AC054F12BC055F139
:1022B0002CC056F12DC057F154C111F055C112F088
:1022C00056C113F057C114F078C115F079C116F05A
:1022D0007AC117F07BC118F083EC24F011C030F103
:1022E00012C031F113C032F114C033F15CC111F0EE
:1022F0005DC112F05EC113F05FC114F05CC115F056
:102300005DC116F05EC117F05FC118F083EC24F0D8
:1023100011C08CF112C08DF113C08EF114C08FF179
:10232000550E056E320E066E6C0E076E3E0E086E72
:10233000420E156EF10E166E530E176E3E0E186E8F
:102340008CC111F08DC112F08EC113F08FC114F049
:1023500083EC24F011C001F012C002F013C003F0AE
:1023600014C004F023EC22F001C0A4F102C0A5F1D6
:1023700003C0A6F104C0A7F1050E056EA30E066EFC
:102380008B0E076E3E0E086E8CC115F08DC116F0D7
:102390008EC117F08FC118F0A4C111F0A5C112F0C1
:1023A000A6C113F0A7C114F083EC24F011C001F012
:1023B00012C002F013C003F014C004F023EC22F0AA
:1023C00001C054F102C055F103C056F104C057F1E9
:1023D000AB0E056EAA0E066EAA0E076E3E0E086EB6
:1023E0008CC115F08DC116F08EC117F08FC118F099
:1023F00054C111F055C112F056C113F057C114F079
:1024000083EC24F011C001F012C002F013C003F0FD
:1024100014C004F023EC22F001C048F102C049F1DD
:1024200003C04AF104C04BF1B70E056E6D0E066E87
:10243000DB0E076E3E0E086E8CC115F08DC116F0D6
:102440008EC117F08FC118F048C111F049C112F0C8
:102450004AC113F04BC114F083EC24F011C001F019
:1024600012C002F013C003F014C004F023EC22F0F9
:1024700001C038F102C039F103C03AF104C03BF1A8
:102480009A0E056E990E066E190E076E3F0E086EB7
:102490008CC115F08DC116F08EC117F08FC118F0E8
:1024A00038C111F039C112F03AC113F03BC114F038
:1024B00083EC24F011C001F012C002F013C003F04D
:1024C00014C004F023EC22F001C000F102C001F1BD
:1024D00003C002F104C003F18CC115F08DC116F0E8
:1024E0008EC117F08FC118F08CC111F08DC112F0A0
:1024F0008EC113F08FC114F083EC24F011C004F1ED
:1025000012C005F113C006F114C007F100C111F0AB
:1025100001C112F002C113F003C114F004C115F09F
:1025200005C116F006C117F007C118F083EC24F0BE
:1025300011C04CF112C04DF113C04EF114C04FF157
:1025400030C115F031C116F032C117F033C118F0A7
:102550005CC105F05DC106F05EC107F05FC108F027
:102560006CC101F06DC102F06EC103F06FC104F0E7
:1025700023EC22F001C011F002C012F003C013F0EE
:1025800004C014F083EC24F011C058F112C059F1CA
:1025900013C05AF114C05BF14CC101F04DC102F0FF
:1025A0004EC103F04FC104F058C105F059C106F007
:1025B0005AC107F05BC108F023EC22F001C04CF1D6
:1025C00002C04DF103C04EF104C04FF16CC111F0D7
:1025D0006DC112F06EC113F06FC114F06CC115F033
:1025E0006DC116F06EC117F06FC118F083EC24F0C6
:1025F00011C08CF112C08DF113C08EF114C08FF197
:10260000000E056E000E066E400E076E400E086E40
:102610008CC101F08DC102F08EC103F08FC104F0B6
:1026200023EC22F001C058F102C059F103C05AF165
:1026300004C05BF158C101F059C102F05AC103F066
:102640005BC104F04CC105F04DC106F04EC107F06E
:102650004FC108F023EC22F001C068F102C069F11B
:1026600003C06AF104C06BF168C1B8F169C1B9F186
:102670006AC1BAF16BC1BBF1B8C190F1B9C191F1B6
:10268000BAC192F1BBC193F1000E01019015B86F70
:10269000F00E9115B96FFF0E9215BA6FFF0E9315DC
:1026A000BB6FB8C168F1B9C169F1BAC16AF1BBC108
:1026B0006BF1000E056E000E066E400E076EC00E2A
:1026C000086E68C101F069C102F06AC103F06BC114
:1026D00004F023EC22F001C03CF102C03DF103C044
:1026E0003EF104C03FF18CC12EF08DC12FF08EC1A0
:1026F00030F08FC131F03CC12AF03DC12BF03EC11A
:102700002CF03FC12DF014EC30F02AC040F12BC06A
:1027100041F12CC042F12DC043F14CC12AF04DC112
:102720002BF04EC12CF04FC12DF040C12EF041C115
:102730002FF042C130F043C131F014EC30F02AC028
:1027400034F12BC035F12CC036F12DC037F16CC1FE
:1027500011F06DC112F06EC113F06FC114F068C1B9
:1027600015F069C116F06AC117F06BC118F083EC5F
:1027700024F011C074F112C075F113C076F114C0C9
:1027800077F168C115F069C116F06AC117F06BC125
:1027900018F030C111F031C112F032C113F033C161
:1027A00014F083EC24F011C001F012C002F013C049
:1027B00003F014C004F05CC115F05DC116F05EC1F9
:1027C00017F05FC118F034C111F035C112F036C1F5
:1027D00013F037C114F083EC24F011C005F012C0DF
:1027E00006F013C007F014C008F023EC22F001C07B
:1027F00078F102C079F103C07AF104C07BF174C1B1
:1028000001F075C102F076C103F077C104F078C120
:1028100005F079C106F07AC107F07BC108F023EC1E
:1028200022F001C09CF102C09DF103C09EF104C0E2
:102830009FF19CC1B8F19DC1B9F19EC1BAF19FC190
:10284000BBF1B8C190F1B9C191F1BAC192F1BBC16C
:1028500093F1000E01019015B86FF00E9115B96F4C
:10286000FF0E9215BA6FFF0E9315BB6FB8C19CF1A6
:10287000B9C19DF1BAC19EF1BBC19FF174C12EF0E7
:1028800075C12FF076C130F077C131F09CC12AF0CC
:102890009DC12BF09EC12CF09FC12DF014EC30F0A7
:1028A0002AC094F12BC095F12CC096F12DC097F160
:1028B00078C12AF079C12BF07AC12CF07BC12DF0C0
:1028C00094C12EF095C12FF096C130F097C131F030
:1028D00014EC30F02AC064F12BC065F12CC066F115
:1028E0002DC067F19CC111F09DC112F09EC113F083
:1028F0009FC114F0000E156E400E166E760E176E08
:102900003F0E186E83EC24F011C020F112C021F1AB
:1029100013C022F114C023F14F0E156E380E166E3F
:10292000760E176E3F0E186E64C111F065C112F07D
:1029300066C113F067C114F083EC24F011C005F0F8
:1029400012C006F013C007F014C008F0C60E156ED2
:10295000230E166EF60E176EB80E186E9CC111F08F
:102960009DC112F09EC113F09FC114F083EC24F0BE
:1029700011C001F012C002F013C003F014C004F043
:1029800023EC22F001C058F102C059F103C05AF102
:1029900004C05BF158C101F059C102F05AC103F003
:1029A0005BC104F0A0C14BF0A1C14CF0D8904B36F4
:1029B0004C36D8904B364C36010E4B24F66E100E2A
:1029C0004C20F76E0900F5CF05F00900F5CF06F0B1
:1029D0000900F5CF07F00A00F5CF08F023EC22F04C
:1029E00001C024F102C025F103C026F104C027F183
:1029F0007CC101F07DC102F07EC103F07FC104F013
:102A0000010E74EC2AF001C0B0F102C0B1F103C0B4
:102A1000B2F104C0B3F124C105F025C106F026C10E
:102A200007F027C108F020C101F021C102F022C146
:102A300003F023C104F023EC22F001C058F102C0DE
:102A400059F103C05AF104C05BF1A0C14BF0A1C120
:102A50004CF0D8904B364C36D8904B364C36090E4D
:102A60004B24F66E100E4C20F76E0900F5CF05F0E2
:102A70000900F5CF06F00900F5CF07F00A00F5CF01
:102A800008F058C101F059C102F05AC103F05BC10E
:102A900004F023EC22F001C008F102C009F103C0E8
:102AA0000AF104C00BF108C101F009C102F00AC12A
:102AB00003F00BC104F0B0C105F0B1C106F0B2C122
:102AC00007F0B3C108F023EC22F001C080F102C08E
:102AD00081F103C082F104C083F180C1B8F181C1EA
:102AE000B9F182C1BAF183C1BBF1B8C190F1B9C1EA
:102AF00091F1BAC192F1BBC193F1000E01019015A1
:102B0000B86FF00E9115B96FFF0E9215BA6FFF0EE8
:102B10009315BB6FB8C180F1B9C181F1BAC182F11F
:102B2000BBC183F1B0C12EF0B1C12FF0B2C130F002
:102B3000B3C131F080C12AF081C12BF082C12CF0E9
:102B400083C12DF014EC30F02AC094F12BC095F124
:102B50002CC096F12DC097F1A0C14BF0A1C14CF053
:102B6000D8904B364C36D8904B364C36090E4B2409
:102B7000F66E100E4C20F76E0900F5CF2EF009000E
:102B8000F5CF2FF00900F5CF30F00A00F5CF31F086
:102B900094C12AF095C12BF096C12CF097C12DF06D
:102BA00014EC30F02AC040F12BC041F12CC042F1AE
:102BB0002DC043F120C12EF021C12FF022C130F0F1
:102BC00023C131F040C12AF041C12BF042C12CF0A9
:102BD00043C12DF014EC30F02AC00CF12BC00DF1E4
:102BE0002CC00EF12DC00FF124C12AF025C12BF00D
:102BF00026C12CF027C12DF00CC12EF00DC12FF0F5
:102C00000EC130F00FC131F014EC30F02AC01CF1CD
:102C10002BC01DF12CC01EF12DC01FF188C0B8F1D2
:102C200089C0B9F18AC0BAF18BC0BBF1B8C190F1CB
:102C3000B9C191F1BAC192F1BBC193F1000E01018A
:102C40009015B86FF00E9115B96FFF0E9215BA6F0F
:102C5000FF0E9315BB6FB8C128F1B9C129F1BAC1F4
:102C60002AF1BBC12BF180C115F081C116F082C1E0
:102C700017F083C118F028C12EF029C12FF02AC106
:102C800030F02BC131F088C02AF089C02BF08AC007
:102C90002CF08BC02DF014EC30F02AC011F02BC0BA
:102CA00012F02CC013F02DC014F083EC24F011C0EE
:102CB00010F112C011F113C012F114C013F110C1C0
:102CC00001F011C102F012C103F013C104F01CC1E4
:102CD00015F01DC116F01EC117F01FC118F088C0F5
:102CE00011F089C012F08AC013F08BC014F083EC8D
:102CF00024F011C005F012C006F013C007F014C094
:102D000008F023EC22F001C064F102C065F103C0B9
:102D100066F104C067F128C111F029C112F02AC17F
:102D200013F02BC114F080C115F081C116F082C1DF
:102D300017F083C118F083EC24F011C09CF112C08D
:102D40009DF113C09EF114C09FF164C101F065C1F3
:102D500002F066C103F067C104F09CC105F09DC19B
:102D600006F09EC107F09FC108F023EC22F001C0DD
:102D7000B4F102C0B5F103C0B6F104C0B7F1B4C1FB
:102D8000B8F1B5C1B9F1B6C1BAF1B7C1BBF1B8C1BB
:102D9000ACF1B9C1ADF1BAC1AEF1BBC1AFF1010146
:102DA000AFBFDFEF16F0AC05000EAD59000EAE5907
:102DB000430EAF59D8A0DFEF16F0E1EF16F017EF92
:102DC00017F0CA0E156EF20E166E490E176E710EC2
:102DD000186E88C111F089C112F08AC113F08BC13D
:102DE00014F083EC24F011C0A4F112C0A5F113C0BB
:102DF000A6F114C0A7F1A4C111F0A5C112F0A6C19B
:102E000013F0A7C114F0CA0E156EF20E166E490E1D
:102E1000176E710E186E83EC24F011C084F012C08E
:102E200085F013C086F014C087F0DBEF1CF0430E72
:102E3000AF19AC11AD11AE11D8A421EF17F023EFEB
:102E400017F096EF17F09CC12EF09DC12FF09EC198
:102E500030F09FC131F0B4C12AF0B5C12BF0B6C13A
:102E60002CF0B7C12DF014EC30F02AC032F02BC09A
:102E700033F02CC034F02DC035F03C0E056EAA0E98
:102E8000066E380E076E330E086E64C101F065C120
:102E900002F066C103F067C104F023EC22F001C028
:102EA00036F002C037F003C038F004C039F07FECD0
:102EB0002CF0D8B05EEF17F060EF17F058EF18F075
:102EC000CA0E156EF20E166E490E176E710E186E42
:102ED00088C111F089C112F08AC113F08BC114F0BE
:102EE00083EC24F011C0A4F112C0A5F113C0A6F127
:102EF00014C0A7F1A4C111F0A5C112F0A6C113F02E
:102F0000A7C114F0CA0E156EF20E166E490E176E9A
:102F1000710E186E83EC24F011C084F012C085F09D
:102F200013C086F014C087F0DBEF1CF0FF0EAC1569
:102F30004B6EFF0EAD154C6EFF0EAE154D6E7F0E37
:102F4000AF154E6E4EBEB1EF17F04B04000E4C584D
:102F5000160E4D58430E4E58D8A0B1EF17F0B3EFF0
:102F600017F0E9EF17F0600E156E420E166EA20E06
:102F7000176E0D0E186E88C111F089C112F08AC14A
:102F800013F08BC114F083EC24F011C0A4F112C033
:102F9000A5F113C0A6F114C0A7F1A4C111F0A5C1F9
:102FA00012F0A6C113F0A7C114F0600E156E420E08
:102FB000166EA20E176E0D0E186E83EC24F011C063
:102FC00084F012C085F013C086F014C087F0DBEFE8
:102FD0001CF0160EAE1909E1C30EAF19AC11AD11FC
:102FE000D8A4F5EF17F0F7EF17F058EF18F09CC1E1
:102FF0002EF09DC12FF09EC130F09FC131F0B4C1C1
:103000002AF0B5C12BF0B6C12CF0B7C12DF014ECED
:1030100030F02AC032F02BC033F02CC034F02DC079
:1030200035F064C136F065C137F066C138F067C16C
:1030300039F07FEC2CF0D8A020EF18F022EF18F038
:1030400058EF18F0600E156E420E166EA20E176E37
:103050000D0E186E88C111F089C112F08AC113F0EB
:103060008BC114F083EC24F011C0A4F112C0A5F1BF
:1030700013C0A6F114C0A7F1A4C111F0A5C112F0AC
:10308000A6C113F0A7C114F0600E156E420E166EA5
:10309000A20E176E0D0E186E83EC24F011C084F092
:1030A00012C085F013C086F014C087F0DBEF1CF06F
:1030B000FF0E0101AC152C6FFF0EAD152D6FFF0E2D
:1030C000AE152E6F7F0EAF152F6F170E4B6E2CC1E6
:1030D0004CF02DC14DF02EC14EF02FC14FF04B667C
:1030E00074EF18F07CEF18F04F344F324E324D32FF
:1030F0004C324B2E6FEF18F0810E4C240101A06F63
:10310000FF0E4D20A16FFF0E4E20A26FFF0E4F202D
:10311000A36F000E7C6F000E7D6F000E7E6F000EA1
:103120007F6F2FBFA0EF18F02C05000E2D59000E59
:103130002E593F0E2F59D8A0A0EF18F0A2EF18F08B
:1031400082EF19F0A0C14BF0010E4B26000E4C6E21
:10315000000E4D6E800E4E6E000E4F6E4B66B3EF3E
:1031600018F0BBEF18F04F344F324E324D324C3224
:103170004B2EAEEF18F00101AC514C247C6FAD51D9
:103180004D207D6FAE514E207E6FAF514F207F6F2F
:10319000810E4B6EFF0E4C6EFF0E4D6EFF0E4E6E8F
:1031A000170E4F6E7CC150F07DC151F07EC152F0C0
:1031B0007FC153F04F66DFEF18F0E7EF18F053349C
:1031C00053325232513250324F2EDAEF18F0505003
:1031D0004B240101A06F000E4C20A16F000E4D206A
:1031E000A26F000E4E20A36FA0C14BF0FF0E4C6EDD
:1031F000FF0E4D6E7F0E4E6E000E4F6E4B6603EF50
:1032000019F00BEF19F04F344F324E324D324C3231
:103210004B2EFEEF18F04C1C506E4D1C516E4E1C88
:10322000526E4F1C536E01017C515014B86F7D518A
:103230005114B96F7E515214BA6F7F515314BB6F42
:10324000B8C1B0F1B9C1B1F1BAC1B2F1BBC1B3F10A
:10325000A05117084B6EFF0E7C154C6EFF0E7D15AE
:103260004D6E7F0E7E154E6E000E7F154F6E000E5A
:103270004C10506E000E4D10516E800E4E10526E5E
:10328000000E4F10536E4B6648EF19F050EF19F0D7
:10329000533453325232513250324B2E43EF19F0E5
:1032A00050C07CF151C07DF152C07EF153C07FF11E
:1032B0000101AFBF60EF19F05EEF19F068EF19F090
:1032C0007F1F7E1F7D1F7C6D000E7D237E237F234D
:1032D0009CC12AF09DC12BF09EC12CF09FC12DF006
:1032E000B0C12EF0B1C12FF0B2C130F0B3C131F096
:1032F00014EC30F02AC09CF12BC09DF12CC09EF143
:103300002DC09FF164C101F065C102F066C103F0F8
:1033100067C104F09CC105F09DC106F09EC107F095
:103320009FC108F023EC22F001C0B0F102C0B1F15E
:1033300003C0B2F104C0B3F1B0C1B8F1B1C1B9F189
:10334000B2C1BAF1B3C1BBF1B8C190F1B9C191F149
:10335000BAC192F1BBC193F1000E01019015B86F93
:10336000800E9115B96FFF0E9215BA6FFF0E93156F
:10337000BB6FB8C1B0F1B9C1B1F1BAC1B2F1BBC153
:10338000B3F1B0C111F0B1C112F0B2C113F0B3C1C9
:1033900014F0000E156E720E166E310E176E3F0E83
:1033A000186E83EC24F011C074F112C075F113C0D3
:1033B00076F114C077F19CC12EF09DC12FF09EC113
:1033C00030F09FC131F0B0C12AF0B1C12BF0B2C1D1
:1033D0002CF0B3C12DF014EC30F02AC094F12BC0C6
:1033E00095F12CC096F12DC097F1180E156E720E46
:1033F000166E310E176E3F0E186E94C12EF095C1E9
:103400002FF096C130F097C131F064C12AF065C148
:103410002BF066C12CF067C12DF014EC30F02AC0FF
:1034200011F02BC012F02CC013F02DC014F083EC5F
:1034300024F011C014F112C015F113C016F114C01C
:1034400017F114C101F015C102F016C103F017C144
:1034500004F08C0E156EBE0E166EBF0E176E350E76
:10346000186EB0C111F0B1C112F0B2C113F0B3C106
:1034700014F083EC24F011C005F012C006F013C064
:1034800007F014C008F023EC22F001C078F102C06C
:1034900079F103C07AF104C07BF174C101F075C108
:1034A00002F076C103F077C104F078C105F079C16C
:1034B00006F07AC107F07BC108F023EC22F001C0CE
:1034C000B4F102C0B5F103C0B6F104C0B7F174C1E4
:1034D0002EF075C12FF076C130F077C131F0B4C154
:1034E0002AF0B5C12BF0B6C12CF0B7C12DF014EC09
:1034F00030F02AC094F12BC095F12CC096F12DC06C
:1035000097F178C12AF079C12BF07AC12CF07BC1F8
:103510002DF094C12EF095C12FF096C130F097C1D7
:1035200031F014EC30F02AC044F12BC045F12CC02E
:1035300046F12DC047F1B4C111F0B5C112F0B6C1CA
:1035400013F0B7C114F0B4C115F0B5C116F0B6C18F
:1035500017F0B7C118F083EC24F011C0B0F112C01D
:10356000B1F113C0B2F114C0B3F10E0E056EEA0E44
:10357000066EDD0E076EB50E086E4C0E156EBB0E98
:10358000166E310E176E330E186EB0C111F0B1C148
:1035900012F0B2C113F0B3C114F083EC24F011C0E7
:1035A00001F012C002F013C003F014C004F023ECC9
:1035B00022F001C0A4F102C0A5F103C0A6F104C02D
:1035C000A7F1550E056EB30E066E8A0E076E380E05
:1035D000086EB0C115F0B1C116F0B2C117F0B3C199
:1035E00018F0A4C111F0A5C112F0A6C113F0A7C133
:1035F00014F083EC24F011C001F012C002F013C0EB
:1036000003F014C004F023EC22F001C054F102C016
:1036100055F103C056F104C057F1610E056E0B0E53
:10362000066E360E076EBB0E086EB0C115F0B1C146
:1036300016F0B2C117F0B3C118F054C111F055C162
:1036400012F056C113F057C114F083EC24F011C0EE
:1036500001F012C002F013C003F014C004F023EC18
:1036600022F001C048F102C049F103C04AF104C090
:103670004BF1AB0E056EAA0E066E2A0E076E3E0EBD
:10368000086EB0C115F0B1C116F0B2C117F0B3C1E8
:1036900018F048C111F049C112F04AC113F04BC1F2
:1036A00014F083EC24F011C001F012C002F013C03A
:1036B00003F014C004F023EC22F001C038F102C082
:1036C00039F103C03AF104C03BF1B4C12AF0B5C1ED
:1036D0002BF0B6C12CF0B7C12DF0B0C115F0B1C1BF
:1036E00016F0B2C117F0B3C118F038C111F039C1EA
:1036F00012F03AC113F03BC114F083EC24F011C076
:103700002EF012C02FF013C030F014C031F014ECC2
:1037100030F02AC080F12BC081F12CC082F12DC085
:1037200083F1000E056E000E066E000E076EC00ED1
:10373000086E80C101F081C102F082C103F083C133
:1037400004F023EC22F001C036F002C037F003C0D1
:1037500038F004C039F080C115F081C116F082C183
:1037600017F083C118F0B4C111F0B5C112F0B6C1A1
:1037700013F0B7C114F083EC24F011C032F012C082
:1037800033F013C034F014C035F098EC26F032C09A
:103790003CF133C03DF134C03EF135C03FF144C18E
:1037A00005F045C106F046C107F047C108F044C125
:1037B00015F045C116F046C117F047C118F0B4C165
:1037C00011F0B5C112F0B6C113F0B7C114F083EC1B
:1037D00024F011C001F012C002F013C003F014C0B5
:1037E00004F023EC22F001C018F102C019F103C06B
:1037F0001AF104C01BF13CC12AF03DC12BF03EC1BF
:103800002CF03FC12DF018C12EF019C12FF01AC1B4
:1038100030F01BC131F014EC30F02AC04CF12BC059
:103820004DF12CC04EF12DC04FF1B4C12EF0B5C1F9
:103830002FF0B6C130F0B7C131F04CC12AF04DC104
:103840002BF04EC12CF04FC12DF014EC30F02AC0FB
:1038500094F12BC095F12CC096F12DC097F1000E7C
:103860002A6E000E2B6E800E2C6E3F0E2D6E94C1B4
:103870002EF095C12FF096C130F097C131F014ECC5
:1038800030F02AC0B4F12BC0B5F12CC0B6F12DC078
:10389000B7F1B4C1B8F1B5C1B9F1B6C1BAF1B7C1A8
:1038A000BBF1B8C1ACF1B9C1ADF1BAC1AEF1BBC1A8
:1038B000AFF17CC14BF07DC14CF07EC14DF07FC1BA
:1038C0004EF0170ED8904B364C364D364E36E82E0D
:1038D00062EF1CF04B500101AC274C50AD234D5012
:1038E000AE234E50AF23170E4B6EACC14CF0ADC1A2
:1038F0004DF0AEC14EF0AFC14FF04B6682EF1CF001
:103900008AEF1CF04F344F324E324D324C324B2E38
:103910007DEF1CF04FBE99EF1CF04F504E104D1034
:1039200006E14C04D8B097EF1CF099EF1CF0B1EF12
:103930001CF0B4C12AF0B5C12BF0B6C12CF0B7C150
:103940002DF07CC12EF07DC12FF065EC28F02AC04F
:10395000B4F12BC0B5F12CC0B6F12DC0B7F1C1EF59
:103960001CF0ACC1B8F1ADC1B9F1AEC1BAF1AFC193
:10397000BBF1B8C1B4F1B9C1B5F1BAC1B6F1BBC1BF
:10398000B7F188C111F089C112F08AC113F08BC15F
:1039900014F0B4C115F0B5C116F0B6C117F0B7C137
:1039A00018F083EC24F011C084F012C085F013C02D
:1039B00086F014C087F01200000E046E7D0E056EB6
:1039C000100E066E010E1FEC2EF0000E0001C36FEC
:1039D0000C0EC26F000EA76F010EA66FB8C090F05C
:1039E000B9C091F0A6C092F0A7C093F0010E946FF9
:1039F000C2C095F04EEC2BF090C0B8F091C0B9F079
:103A0000820E5B6EDE0EE82EFED75B2EFCD7000129
:103A1000C24BC32BA607D8A0A707A7BF14EF1DF062
:103A200012EF1DF0EEEF1CF0B9BF22EF1DF0B951FF
:103A300007E13D0EB85DD8B020EF1DF022EF1DF07C
:103A4000B7EF1FF0000EAD6F010EAC6FA5EF1FF0CA
:103A5000E4EC30F0000E0D6EACC00EF0ADC00FF017
:103A6000010EB1EC2EF0020E046EB60E056E100EB5
:103A7000066E010E1FEC2EF0030E0D6E000E0F6E83
:103A8000000E0E6E010E01EC2DF0070E046E9B0E63
:103A9000056E100E066E010E1FEC2EF00001AC4BF1
:103AA000AD2B000E0D6EACC00EF0ADC00FF0020ECF
:103AB000B1EC2EF0020E046EB60E056E100E066E00
:103AC000020E1FEC2EF0030E0D6E000E0F6E000E98
:103AD0000E6E020E01EC2DF0070E046E9B0E056EAD
:103AE000100E066E020E1FEC2EF0000E0001A96FE4
:103AF000030EA86F000EA36F030EA26FACC05BF0A5
:103B0000ADC05CF0D8905B365C36D8905B365C36E6
:103B1000D8905B365C36460E5B24D96E040E5C2072
:103B2000DA6EDECF90F0DDCF91F0A8C092F0A9C0A0
:103B300093F0010E946FA2C095F04EEC2BF0ACC048
:103B40005DF0ADC05EF0D8905D365E36D8905D36E3
:103B50005E36D8905D365E36460E5D24D96E040E14
:103B60005E20DA6E000190C0DEFF91C0DDFF820EA4
:103B70005B6EDE0EE82EFED75B2EFCD70001A24B5B
:103B8000A32BA807D8A0A907A9BFCBEF1DF0C9EFA9
:103B90001DF07EEF1DF0ACC05BF0ADC05CF0D890C6
:103BA0005B365C36D8905B365C36D8905B365C36DC
:103BB000500E5B24D96E040E5C20DA6EDECF90F0DE
:103BC000DDCF91F0000E936F000E926F010E946F97
:103BD000090E956F4EEC2BF0ACC05DF0ADC05EF001
:103BE000D8905D365E36D8905D365E36D8905D36BC
:103BF0005E36480E5D24D96E040E5E20DA6E00013A
:103C000090C0DEFF91C0DDFF820E5B6EDE0EE82EFF
:103C1000FED75B2EFCD7ACC05BF0ADC05CF0D8909B
:103C20005B365C36D8905B365C36D8905B365C365B
:103C3000520E5B24D96E040E5C20DA6EDECF90F05B
:103C4000DDCF91F0000E0001936F000E926F010E18
:103C5000946F0C0E956F4EEC2BF0ACC05DF0ADC0C8
:103C60005EF0D8905D365E36D8905D365E36D89080
:103C70005D365E364A0E5D24D96E040E5E20DA6E25
:103C8000000190C0DEFF91C0DDFF820E5B6EDE0E94
:103C9000E82EFED75B2EFCD7ACC05BF0ADC05CF06D
:103CA000D8905B365C36D8905B365C36D8905B3605
:103CB0005C36540E5B24D96E040E5C20DA6EDECFC7
:103CC00090F0DDCF91F0000E0001936F000E926F27
:103CD000010E946F0F0E956F4EEC2BF0ACC05DF0A3
:103CE000ADC05EF0D8905D365E36D8905D365E36FB
:103CF000D8905D365E364C0E5D24D96E040E5E2083
:103D0000DA6E000190C0DEFF91C0DDFF820E5B6EB7
:103D1000DE0EE82EFED75B2EFCD7000E0001AB6F47
:103D2000030EAA6F000EA56F030EA46FACC05BF06C
:103D3000ADC05CF0D8905B365C36D8905B365C36B4
:103D4000D8905B365C364E0E5B24D96E040E5C2038
:103D5000DA6EDECF90F0DDCF91F0AAC092F0ABC06A
:103D600093F0020E946FA4C095F04EEC2BF0ACC013
:103D70005DF0ADC05EF0D8905D365E36D8905D36B1
:103D80005E36D8905D365E36460E5D24D96E040EE2
:103D90005E20DA6E000190C0DEFF91C0DDFF820E72
:103DA0005B6EDE0EE82EFED75B2EFCD70001A44B27
:103DB000A52BAA07D8A0AB07ABBFE3EF1EF0E1EF3E
:103DC0001EF096EF1EF0ACC05BF0ADC05CF0D8907A
:103DD0005B365C36D8905B365C36D8905B365C36AA
:103DE000500E5B24D96E040E5C20DA6EDECF90F0AC
:103DF000DDCF91F0000E936F000E926F020E946F64
:103E0000090E956F4EEC2BF0ACC05DF0ADC05EF0CE
:103E1000D8905D365E36D8905D365E36D8905D3689
:103E20005E36500E5D24D96E040E5E20DA6E0001FF
:103E300090C0DEFF91C0DDFF820E5B6EDE0EE82ECD
:103E4000FED75B2EFCD7ACC05BF0ADC05CF0D89069
:103E50005B365C36D8905B365C36D8905B365C3629
:103E6000520E5B24D96E040E5C20DA6EDECF90F029
:103E7000DDCF91F0000E0001936F000E926F020EE5
:103E8000946F0C0E956F4EEC2BF0ACC05DF0ADC096
:103E90005EF0D8905D365E36D8905D365E36D8904E
:103EA0005D365E36520E5D24D96E040E5E20DA6EEB
:103EB000000190C0DEFF91C0DDFF820E5B6EDE0E62
:103EC000E82EFED75B2EFCD7ACC05BF0ADC05CF03B
:103ED000D8905B365C36D8905B365C36D8905B36D3
:103EE0005C36540E5B24D96E040E5C20DA6EDECF95
:103EF00090F0DDCF91F0000E0001936F000E926FF5
:103F0000020E946F0F0E956F4EEC2BF0ACC05DF06F
:103F1000ADC05EF0D8905D365E36D8905D365E36C8
:103F2000D8905D365E36540E5D24D96E040E5E2048
:103F3000DA6E000190C0DEFF91C0DDFF820E5B6E85
:103F4000DE0EE82EFED75B2EFCD70001AC51B85D2B
:103F5000B951800A5B6EAD51800A5B58D8B0B3EF9F
:103F60001FF0B5EF1FF028EF1DF0B9EF1FF0E4ECE4
:103F700030F0000E046E8C0E056E100E066E010EF3
:103F80001FEC2EF012003EC068F03FC069F040C048
:103F90006AF041C06BF068C080F069C081F06AC00F
:103FA00082F06BC083F0000E00018015426E000E9F
:103FB0008115436E800E8215446E7F0E8315456E0B
:103FC000800E441809E17F0E451842104310D8A412
:103FD000ECEF1FF0EEEF1FF01CEF20F03EC015F0ED
:103FE0003FC016F040C017F041C018F03EC011F0BD
:103FF0003FC012F040C013F041C014F083EC24F035
:1040000011C001F012C002F013C003F014C004F09C
:104010003EC005F03FC006F040C007F041C008F0C8
:1040200023EC22F001C03EF002C03FF003C040F09C
:1040300004C041F022EF22F083BF2BEF20F0835128
:104040008211811106E18005D8B029EF20F02BEF15
:1040500020F067EF20F0FF0E8015426EFF0E8115F5
:10406000436EFF0E8215446E7F0E8315456E4250DF
:10407000431044104510D8A440EF20F042EF20F048
:104080004CEF20F03EC03EF03FC03FF040C040F05B
:1040900041C041F022EF22F083BF53EF20F051EFF7
:1040A00020F067EF20F0000EB76F210EB66FB40E50
:1040B000016E100E026ECEEC30F001C03EF002C078
:1040C0003FF003C040F004C041F022EF22F0170E91
:1040D000426E80C043F081C044F082C045F083C08E
:1040E00046F0426676EF20F07EEF20F0463446320E
:1040F000453244324332422E71EF20F043C078F013
:1041000044C079F045C07AF046C07BF00001785198
:1041100079117A117B11D8A490EF20F092EF20F062
:10412000C2EF20F0000E646F000E656F000E666F28
:10413000000E676FA7EF20F0D89080378137823765
:104140008337010E6427000E65236623672382AF41
:10415000ACEF20F0AEEF20F09CEF20F0FF0E6425D6
:10416000426EFF0E6521436EFF0E6621446EFF0E08
:104170006721456E4250785F4350795B44507A5BCB
:1041800045507B5B810E7827FF0E7923FF0E7A2343
:10419000FF0E7B23FF0E8015426EFF0E8115436ECE
:1041A0007F0E8215446E000E8315456E000E421080
:1041B000806F000E4310816F800E4410826F000EDE
:1041C0004510836F78A1E7EF20F0E9EF20F0F1EFE1
:1041D00020F0805180278151812382518223835195
:1041E00083237B357B337A3379337833805180274F
:1041F000815181238251822383518323000E606F7A
:10420000000E616F000E626F000E636F60C06CF095
:1042100061C06DF062C06EF063C06FF0000E7C6F25
:10422000000E7D6F000E7E6F010E7F6F60EF21F03C
:1042300060517C25706F61517D21716F62517E21CB
:10424000726F63517F21736F7051805D715181591D
:10425000725182598351800A426E7351800A4258CA
:10426000D8A035EF21F037EF21F053EF21F0705156
:104270007C25606F71517D21616F72517E21626F6B
:1042800073517F21636F7051805F7151815B7251F7
:10429000825B7351835B7C516C277D516D237E5112
:1042A0006E237F516F23805180278151812382515A
:1042B000822383518323D8907F337E337D337C33B5
:1042C0007C517D117E117F11D8A469EF21F06BEF35
:1042D00021F018EF21F08051811182118311D8B49F
:1042E00074EF21F076EF21F0D7EF21F0000E746F1C
:1042F000000E756F800E766F3F0E776F74C032F0D0
:1043000075C033F076C034F077C035F0000E366EED
:10431000000E376E800E386E3F0E396E7FEC2CF03B
:10432000D8A095EF21F097EF21F0D7EF21F0000E04
:104330000001746F000E756F800E766F3F0E776F01
:10434000000E326E000E336E800E346E3F0E356EF0
:1043500074C036F075C037F076C038F077C039F0E9
:104360007FEC2CF0D8B0B7EF21F0B9EF21F0C2EF1D
:1043700021F0020E00016C27000E6D236E236F23C7
:10438000D7EF21F0010E00016C15426E000E6D1585
:10439000436E000E6E15446E000E6F15456E425052
:1043A0006C2743506D2344506E2345506F236CC0DF
:1043B00042F06DC043F06EC044F06FC045F045342C
:1043C0004532443243324232000E42240001806FB3
:1043D000000E4320816F000E4420826F3F0E452067
:1043E000836F78C042F079C043F07AC044F07BC05C
:1043F00045F0170ED8904236433644364536E82EFF
:10440000FAEF21F042508027435081234450822309
:104410004550832380C068F081C069F082C06AF093
:1044200083C06BF068C074F069C075F06AC076F044
:104430006BC077F074C03EF075C03FF076C040F0BE
:1044400077C041F012000450800B0D6E045004241C
:104450000F6E03AE2EEF22F030EF22F031EF22F09C
:104460000F800F50D8B437EF22F039EF22F04EEF23
:1044700022F00F28D8A43FEF22F041EF22F049EFBD
:1044800022F0000E016E000E026E000E036E000E92
:10449000046E038E000E046E56EF22F0000E016EC5
:1044A000000E026E000E036E000E046E0850800BAC
:1044B0000E6E0D500E18D8B460EF22F062EF22F0AD
:1044C00063EF22F00D8C085008240E6E07AE6BEFE0
:1044D00022F06DEF22F06EEF22F00E800E50D8B475
:1044E00074EF22F076EF22F08BEF22F00E28D8A4A2
:1044F0007CEF22F07EEF22F086EF22F0000E056EB8
:10450000000E066E000E076E000E086E078E000E7F
:10451000086E93EF22F0000E056E000E066E000E80
:10452000076E000E086E0F500E5CD8B09AEF22F0A6
:104530009CEF22F0C3EF22F00DACA1EF22F0A3EF2D
:1045400022F0A5EF22F0800E0D1A0FC010F00EC061
:104550000FF010C00EF001C010F005C001F010C047
:1045600005F002C010F006C002F010C006F003C053
:1045700010F007C003F010C007F004C010F008C02E
:1045800004F010C008F0000E106E0F500EC009F0BD
:104590000A6A095E000E0A5A0ABED8EF22F00A50D3
:1045A00009E11A0E095CD8A0D8EF22F0DAEF22F068
:1045B00011EF23F00150021003100410D8A4E3EF10
:1045C00022F0E6EF22F0010EE7EF22F0000E106E6F
:1045D000000E016E000E026E000E036E000E046EE1
:1045E0000EC00FF01AEF23F010A0F9EF22F0FBEF4E
:1045F00022F001EF23F0D89010300109106E03EF84
:1046000023F0D890103201A008EF23F00AEF23F036
:104610000BEF23F0108E04340432033202320132E5
:104620000F2A0E500F5CD8A018EF23F01AEF23F0DA
:10463000F4EF22F00DBC1FEF23F021EF23F061EF28
:1046400023F00F50D8A427EF23F029EF23F033EF06
:1046500023F0000E016E000E026E000E036E000EBF
:10466000046E82EF24F00550012606500222075006
:1046700003220850042204A040EF23F042EF23F06D
:10468000EEEF23F010A047EF23F049EF23F04FEFB8
:1046900023F0D89010300109106E51EF23F0D8901C
:1046A000103201A056EF23F058EF23F059EF23F01A
:1046B000108E043404320332023201320F2AEEEF3C
:1046C00023F00550015C065002580750035804506F
:1046D000800A096E0850800A0958D8B072EF23F09A
:1046E00074EF23F09FEF23F00150055C096E025038
:1046F00006580A6E035007580B6E045008580C6E8B
:10470000FF0E0924016EFF0E0A20026EFF0E0B2021
:10471000036EFF0E0C20046E800E0D1A106C1050EC
:10472000D8A495EF23F097EF23F0A7EF23F0010E25
:104730000126000E022203220422A7EF23F00550D7
:10474000015E0650025A0750035A0850045A01509D
:10475000021003100410D8A4B0EF23F0B2EF23F03E
:10476000E7EF23F01050D8A4B8EF23F0BAEF23F00E
:10477000E7EF23F0000E016E000E026E000E036ED6
:10478000000E046E82EF24F0D89001360236033614
:10479000043610AECEEF23F0D0EF23F0D1EF23F0AC
:1047A000018010A0D6EF23F0D8EF23F0DCEF23F048
:1047B000D8801036DEEF23F0D89010360F50D8B4E2
:1047C000E4EF23F0E6EF23F0E7EF23F00F0603AE6C
:1047D000ECEF23F0EEEF23F0C4EF23F0000E0E6EAB
:1047E00010AEF5EF23F0F7EF23F00FEF24F010C039
:1047F00009F07F0E0916D8B400EF24F002EF24F080
:1048000006EF24F0010E0E6E0FEF24F001A00BEF67
:1048100024F00DEF24F00FEF24F002EF24F00E50FF
:10482000D8B415EF24F017EF24F042EF24F0010E76
:104830000126000E02220322042204A022EF24F00B
:1048400024EF24F042EF24F001C009F002C00AF086
:1048500003C00BF004C00CF00C340C320B320A32E3
:10486000093209C001F00AC002F00BC003F00CC00D
:1048700004F00F28D8B43FEF24F041EF24F042EFCA
:1048800024F00F2A0F28D8B448EF24F04AEF24F080
:1048900052EF24F00F50D8A450EF24F052EF24F040
:1048A00064EF24F0000E016E000E026E000E036E27
:1048B000000E046E0F50D8A460EF24F062EF24F0D5
:1048C00064EF24F0000E0D6E0FA069EF24F06BEF83
:1048D00024F06EEF24F0038E6FEF24F0039ED89047
:1048E0000F30046E0DAE77EF24F079EF24F07AEFFD
:1048F00024F0048E01C001F002C002F003C003F0F6
:1049000004C004F012001450800B1D6E14501424C7
:10491000236E13AE8EEF24F090EF24F091EF24F08D
:1049200023802350D8B497EF24F099EF24F0ACEF14
:1049300024F02328D8A49FEF24F0A1EF24F0A9EFBE
:1049400024F0000E116E000E126E000E136E000E9B
:10495000146E138EB4EF24F0000E116E000E126E62
:10496000000E136E000E146E1850800B1D1A185096
:104970001824226E17AEBFEF24F0C1EF24F0C2EF6F
:1049800024F022802250D8B4C8EF24F0CAEF24F0DB
:10499000DDEF24F02228D8A4D0EF24F0D2EF24F0C9
:1049A000DAEF24F0000E156E000E166E000E176E74
:1049B000000E186E178EE5EF24F0000E156E000E37
:1049C000166E000E176E000E186E2250D8B4EBEF64
:1049D00024F0EDEF24F0F5EF24F02350D8A4F3EF0A
:1049E00024F0F5EF24F0FFEF24F0000E116E000E1E
:1049F000126E000E136E000E146E97EF26F0175015
:104A00001102F3CF28F0F4CF29F028501E6E1F6A50
:104A1000206A216A2950246E256A266A276A165060
:104A20001202F3CF28F0F4CF29F028501E26000EF2
:104A30001F222022212229502426000E2522262250
:104A4000272215501302F3CF28F0F4CF29F0285075
:104A50001E26000E1F222022212229502426000E6D
:104A600025222622272220C021F01FC020F01EC0B0
:104A70001FF01E6A15501202F3CF28F0F4CF29F070
:104A800028501E2629501F22000E2022000E21220F
:104A900016501102F3CF28F0F4CF29F028501E262B
:104AA00029501F22000E2022000E212220C021F0BA
:104AB0001FC020F01EC01FF01E6A15501102F3CF58
:104AC00028F0F4CF29F028501E2629501F22000E6E
:104AD0002022000E212217501202F3CF28F0F4CF2B
:104AE00029F02850242629502522000E2622000EC7
:104AF000272216501302F3CF28F0F4CF29F02850C4
:104B0000242629502522000E2622000E2722175087
:104B10001302F3CF28F0F4CF29F02850196E295052
:104B20001A6E1B6A1C6A1BC01CF01AC01BF019C04D
:104B30001AF0196A195024261A5025221B502622D1
:104B40001C5027221EC019F01FC01AF020C01BF0F5
:104B500021C01CF0190EB2EF25F0D8901C321B3288
:104B60001A321932E82EADEF25F0195024261A50CA
:104B700025221B5026221C50272220C021F01FC0B6
:104B800020F01EC01FF01E6A225023C019F01A6ABE
:104B90001926000E1A22820E1924286EFF0E1A20E2
:104BA000296EE8EF25F0D8902436253626362736AC
:104BB00021AEDDEF25F0DFEF25F0E0EF25F02480DA
:104BC000D8901E361F36203621362806D8A0290652
:104BD00026AEEDEF25F0EFEF25F0D3EF25F0000E38
:104BE000226E21AEF6EF25F0F8EF25F01CEF26F04F
:104BF000FF0E1E14196EFF0E1F141A6EFF0E2014E6
:104C00001B6E7F0E21141C6E19501A101B101C10E5
:104C1000D8B40DEF26F00FEF26F013EF26F0010EBB
:104C2000226E1CEF26F024A018EF26F01AEF26F0D3
:104C30001CEF26F00FEF26F02250D8B422EF26F01A
:104C400024EF26F048EF26F0010E2426000E252240
:104C50002622272227A02FEF26F031EF26F048EF5B
:104C600026F024C019F025C01AF026C01BF027C07A
:104C70001CF01C341C321B321A32193219C024F0B9
:104C80001AC025F01BC026F01CC027F0284A292A8C
:104C900029BE53EF26F0295008E12828D8A053EF69
:104CA00026F055EF26F05FEF26F0000E246E000E82
:104CB000256E800E266E7F0E276E8DEF26F029BEA4
:104CC0006CEF26F0295006E12804D8B06AEF26F0F0
:104CD0006CEF26F078EF26F0000E246E000E256EA5
:104CE000000E266E000E276E000E1D6E8DEF26F054
:104CF00028C023F0FF0E2416FF0E25167F0E261661
:104D0000000E271623A087EF26F089EF26F08AEF02
:104D100026F0268ED8902330276E1D50271224C0EF
:104D200011F025C012F026C013F027C014F01200B5
:104D30003550800B426E35503524496E34AEA3EFAA
:104D400026F0A5EF26F0A6EF26F049804950D8B40A
:104D5000ACEF26F0AEEF26F0C3EF26F04928D8A43A
:104D6000B4EF26F0B6EF26F0BEEF26F0000E326E5E
:104D7000000E336E000E346E000E356E348E000E53
:104D8000356ECBEF26F0000E326E000E336E000E45
:104D9000346E000E356E3950800B421A395039246A
:104DA0004A6E38AED6EF26F0D8EF26F0D9EF26F0CF
:104DB0004A804A50D8B4DFEF26F0E1EF26F0F6EF54
:104DC00026F04A28D8A4E7EF26F0E9EF26F0F1EF25
:104DD00026F0000E366E000E376E000E386E000E96
:104DE000396E388E000E396EFEEF26F0000E366EEC
:104DF000000E376E000E386E000E396E36503710CA
:104E000038103910D8A407EF27F009EF27F021EF69
:104E100027F0000E326E000E336E000E346E000E60
:104E2000356E800E34127F0E35124250351232C06C
:104E300032F033C033F034C034F035C035F064EFB5
:104E400028F04950D8A427EF27F029EF27F033EFB7
:104E500027F0000E326E000E336E000E346E000E20
:104E6000356E64EF28F04A5049C03AF03B6A3A5E2A
:104E7000000E3B5A7F0E3A24436E000E3B20446ED8
:104E800032C03EF033C03FF034C040F035C041F096
:104E9000000E326E000E336E000E346E000E356E54
:104EA000000E456E000E466E000E476E000E486EF8
:104EB000000E4A6E94EF27F04A50D8B462EF27F004
:104EC00064EF27F07BEF27F0D8903E363F36403630
:104ED0004136D890323633363436353648AE73EFF5
:104EE00027F075EF27F076EF27F03280D89045361F
:104EF00046364736483636503E5C37503F58385075
:104F0000405839504158D8A088EF27F08AEF27F051
:104F100093EF27F0488C36503E5E37503F5A38505A
:104F2000405A3950415A4A2A190E4A649AEF27F0DA
:104F30009CEF27F05CEF27F03E503F1040104110EF
:104F4000D8B4A5EF27F0A7EF27F0BFEF27F04580F3
:104F5000BFEF27F0D890323633363436353648AE88
:104F6000B4EF27F0B6EF27F0B7EF27F03280D890F4
:104F700045364636473648364306D8A0440634AE52
:104F8000C4EF27F0C6EF27F0AAEF27F0000E4A6E15
:104F900048AECDEF27F0CFEF27F0F3EF27F0FF0E6D
:104FA00045143A6EFF0E46143B6EFF0E47143C6EDE
:104FB0007F0E48143D6E3A503B103C103D10D8B463
:104FC000E4EF27F0E6EF27F0EAEF27F0010E4A6E54
:104FD000F3EF27F032A0EFEF27F0F1EF27F0F3EF38
:104FE00027F0E6EF27F04A50D8B4F9EF27F0FBEFAF
:104FF00027F01FEF28F0010E3226000E3322342254
:10500000352235A006EF28F008EF28F01FEF28F032
:1050100032C03AF033C03BF034C03CF035C03DF014
:105020003D343D323C323B323A323AC032F03BC042
:1050300033F03CC034F03DC035F0434A442A44BE0E
:105040002AEF28F0445008E14328D8A02AEF28F09E
:105050002CEF28F037EF28F0000E446E4368000E66
:10506000326E000E336E000E346E000E356E44BE8E
:1050700044EF28F0445006E14304D8B042EF28F052
:1050800044EF28F052EF28F0000E446E000E436EFD
:10509000000E326E000E336E000E346E000E356E52
:1050A000000E426E43C049F049A059EF28F05BEF73
:1050B00028F05EEF28F0348E5FEF28F0349ED89011
:1050C0004930356E15EF27F012002AC038F02BC09A
:1050D00039F02CC03AF02DC03BF02FBE79EF28F00C
:1050E0002F5009E1800E2E5CD8A079EF28F07BEFDD
:1050F00028F0D9EF28F038C011F039C012F03AC0CA
:1051000013F03BC014F0000E156E000E166E000E6C
:10511000176E7F0E186E83EC24F011C038F012C0A9
:1051200039F013C03AF014C03BF0810E2E26FF0E6A
:105130002F222FBEA5EF28F02F5009E1800E2E5C04
:10514000D8A0A5EF28F0A7EF28F043EF29F038C04A
:1051500011F039C012F03AC013F03BC014F0000E49
:10516000156E000E166E000E176E7F0E186E83EC15
:1051700024F011C038F012C039F013C03AF014C056
:105180003BF0810E2E26FF0E2F222FBED1EF28F0EE
:105190002F5009E1800E2E5CD8A0D1EF28F0D3EF7C
:1051A00028F043EF29F0000E2F6E7F0E2E6E43EF96
:1051B00029F02FAEE5EF28F0820E2E5CFF0E2F585F
:1051C000D8B0E5EF28F0E7EF28F043EF29F038C03A
:1051D00011F039C012F03AC013F03BC014F0000EC9
:1051E000156E000E166E800E176E0C0E186E83EC88
:1051F00024F011C038F012C039F013C03AF014C0D6
:105200003BF0660E2E26000E2F222FAE11EF29F056
:10521000820E2E5CFF0E2F58D8B011EF29F013EF3D
:1052200029F043EF29F038C011F039C012F03AC02C
:1052300013F03BC014F0000E156E000E166E800EBB
:10524000176E0C0E186E83EC24F011C038F012C0EB
:1052500039F013C03AF014C03BF0660E2E26000E53
:105260002F222FAE3DEF29F0820E2E5CFF0E2F581D
:10527000D8B03DEF29F03FEF29F043EF29F0FF0EC2
:105280002F6E820E2E6E7F0E2E24306E000E2F207B
:10529000316E326A336A170ED89030363136323674
:1052A0003336E82E4CEF29F030C034F031C035F001
:1052B00032C036F033C037F034C011F035C012F0D0
:1052C00036C013F037C014F038C015F039C016F0EE
:1052D0003AC017F03BC018F083EC24F011C02AF05C
:1052E00012C02BF013C02CF014C02DF02AC02AF0ED
:1052F0002BC02BF02CC02CF02DC02DF01200E4ECB4
:1053000030F0000E0001A36F030EA26F000E046EBA
:10531000BB0E056E100E066E010E1FEC2EF0020E77
:105320000D6EBEC00EF0BFC00FF0010E01EC2DF0EF
:10533000080E046EB80E056E100E066E010E1FEC00
:105340002EF00A0E0D6EC0C00EF0C1C00FF0010E9F
:1053500001EC2DF0000E046EB50E056E100E066EFB
:10536000020E1FEC2EF0020E0D6EBCC00EF0BDC082
:105370000FF0020E01EC2DF0000E0001C36F020EC3
:10538000C26F000EA56F030EA46FBEC090F0BFC029
:1053900091F0A4C092F0A5C093F0010E946FC2C02A
:1053A00095F04EEC2BF090C0BEF091C0BFF0820E95
:1053B0005B6EDE0EE82EFED75B2EFCD70001C24BE3
:1053C000C32BA407D8A0A507A5BFEBEF29F0E9EFF1
:1053D00029F0C5EF29F0000EC36F0A0EC26FA2C0FC
:1053E000A6F0A3C0A7F0A7BFFAEF29F0F8EF29F0C5
:1053F000FCEF29F01DEF2AF0C0C090F0C1C091F081
:10540000A6C092F0A7C093F0010E946FC2C095F0B1
:105410004EEC2BF090C0C0F091C0C1F0820E5B6EDC
:10542000DE0EE82EFED75B2EFCD70001C24BC32B4D
:10543000A607D8A0A707F3EF29F0000EC36F020E4E
:10544000C26FA2C0A8F0A3C0A9F0A9BF2CEF2AF098
:105450002AEF2AF02EEF2AF04FEF2AF0BCC090F08E
:10546000BDC091F0A8C092F0A9C093F0020E946F55
:10547000C2C095F04EEC2BF090C0BCF091C0BDF0D6
:10548000820E5B6EDE0EE82EFED75B2EFCD700018F
:10549000C24BC32BA807D8A0A90725EF2AF082A0EA
:1054A00054EF2AF056EF2AF04FEF2AF0E4EC30F0F8
:1054B000000E0D6EC0C00EF0C1C00FF0010E01EC69
:1054C0002DF0080E0D6EBEC00EF0BFC00FF0010E25
:1054D00001EC2DF0000E0D6EBCC00EF0BDC00FF043
:1054E000020E01EC2DF01200096E0950D8B47BEFCA
:1054F0002AF07DEF2AF09FEF2AF004BE84EF2AF015
:1055000082EF2AF09FEF2AF001C005F002C006F0FA
:1055100003C007F004C008F0051E061E071E081E83
:10552000052A000E06220722082205C00BF006C03D
:105530000CF007C00DF008C00EF0A7EF2AF001C074
:105540000BF002C00CF003C00DF004C00EF00150CF
:10555000021003100410D8A4B0EF2AF0B2EF2AF022
:10556000BCEF2AF0000E016E000E026E000E036EFC
:10557000000E046E4DEF2BF0960E0A6EC6EF2AF069
:105580000A2AD8900E320D320C320B32000E0B1458
:10559000056E000E0C14066E000E0D14076EFE0E46
:1055A0000E14086E0550061007100810D8A4DBEF83
:1055B0002AF0DDEF2AF0C0EF2AF0EBEF2AF00A2AFA
:1055C000010E0B26000E0C220D220E22D8900E3258
:1055D0000D320C320B32000E0B14056E000E0C1443
:1055E000066E000E0D14076EFF0E0E14086E0550A9
:1055F000061007100810D8A400EF2BF002EF2BF0D4
:10560000DFEF2AF00AEF2BF00A06D8900B360C36A3
:105610000D360E360DBE0FEF2BF011EF2BF019EFFC
:105620002BF0020E0A6017EF2BF019EF2BF004EFAE
:105630002BF00AB01EEF2BF020EF2BF021EF2BF018
:105640000D9ED8900A320AC005F0066A076A086AF9
:1056500005C008F0076A066A056A05500B12065075
:105660000C1207500D1208500E120950D8B43BEF1F
:105670002BF03DEF2BF045EF2BF004BE44EF2BF069
:1056800042EF2BF045EF2BF00E8E0BC001F00CC05B
:1056900002F00DC003F00EC004F01200000E000175
:1056A0009F6F000E9E6F000EA16F000EA06F95C041
:1056B00004F0A0C005F00001945137EC30F095C023
:1056C00004F00001945178EC30F077EF2BF081AAD0
:1056D0006CEF2BF06EEF2BF077EF2BF000019E516B
:1056E0009025906F9F519121916FFAEF2BF081AC33
:1056F0007CEF2BF07EEF2BF067EF2BF0410E5A6E14
:10570000EE0EE82EFED75A2EFCD700D00001A1BF26
:1057100095EF2BF0A15107E1090EA05DD8B093EFF2
:105720002BF095EF2BF099EF2BF0A04BA12B9DEFD9
:105730002BF0000EA16F000EA06F92C001F093C07D
:1057400002F0000E02BEFF0E036E046E010E74EC3A
:105750002AF001C096F002C097F003C098F004C090
:1057600099F096C088F097C089F098C08AF099C0E7
:105770008BF0000E0001846F000E856F200E866F87
:10578000410E876F60EC08F084C09AF085C09BF0F2
:1057900086C09CF087C09DF09AC015F09BC016F0A3
:1057A0009CC017F09DC018F0A0C001F0A1C002F08D
:1057B000000E02BEFF0E036E046E010E74EC2AF0A2
:1057C00001C011F002C012F003C013F004C014F0C5
:1057D00083EC24F011C08CF012C08DF013C08EF059
:1057E00014C08FF0FBEC2BF08CC09EF08DC09FF0AE
:1057F00057EF2BF0120000018E358F35596E59503E
:10580000D8A405EF2CF007EF2CF011EF2CF0000ED0
:105810008C6F000E8D6F000E8E6F000E8F6F7EEFFF
:105820002CF08CC054F08DC055F08EC056F08FC057
:1058300057F0200E21EF2CF0D890573256325532C7
:105840005432E82E1CEF2CF05450586E8E8FFF0E01
:105850008C17FF0E8D17FF0E8E17000E8F17960EEA
:10586000595E59BE38EF2CF036EF2CF04EEF2CF08D
:105870005950800A970FD8B040EF2CF042EF2CF02F
:1058800044EF2CF007EF2CF0D8908F338E338D330C
:105890008C33593E44EF2CF066EF2CF01F0E596408
:1058A00054EF2CF056EF2CF05EEF2CF007EF2CF0BD
:1058B000D8908C378D378E378F3759065950D8A4EA
:1058C00064EF2CF066EF2CF058EF2CF05850D8B461
:1058D0006CEF2CF06EEF2CF076EF2CF08F1F8E1FFC
:1058E0008D1F8C6D000E8D238E238F238CC08CF02A
:1058F0008DC08DF08EC08EF08FC08FF01200000E24
:1059000032143A6E000E33143B6E800E34143C6E2B
:105910007F0E35143D6E3A503B103C103D10D8A41C
:1059200094EF2CF096EF2CF09EEF2CF0000E326EE0
:10593000000E336E000E346E000E356E000E3614FF
:105940003A6E000E37143B6E800E38143C6E7F0E9C
:1059500039143D6E3A503B103C103D10D8A4B3EFC3
:105960002CF0B5EF2CF0BDEF2CF0000E366E000ED3
:10597000376E000E386E000E396E35AEC2EF2CF069
:10598000C4EF2CF0CDEF2CF0326C331ED8B0332A9C
:10599000341ED8B0342A800E355639AED2EF2CF0F2
:1059A000D4EF2CF0DDEF2CF0366C371ED8B0372A50
:1059B000381ED8B0382A800E3956000E321A000E22
:1059C000331A000E341A800E351A000E361A000EE5
:1059D000371A000E381A800E391A3650325C37509A
:1059E00033583850345839503558D8B0FAEF2CF075
:1059F000FCEF2CF0FFEF2CF0D89000EF2DF0D880CA
:105A00001200106E0EC001F00FC002F0030E046E03
:105A1000E80E036EF3EC2EF00150300F0001ED6F35
:105A2000000E046E640E036E0EC001F00FC002F093
:105A3000F3EC2EF001C008F002C009F0000E0B6E6E
:105A40000A0E0A6E5FEC2FF00850300F0001EE6F67
:105A5000000E046E0A0E036E0EC001F00FC002F0BD
:105A6000F3EC2EF001C008F002C009F0000E0B6E3E
:105A70000A0E0A6E5FEC2FF00850300F0001EF6F36
:105A80000EC008F00FC009F0000E0B6E0A0E0A6E71
:105A90005FEC2FF00850300F0001F06F000EF16F37
:105AA000ED0E016E000E026E91EC2FF00009D8B4DD
:105AB0005CEF2DF05EEF2DF069EF2DF00DC004F0DE
:105AC000ED0E056E000E066E10501FEC2EF072EFFC
:105AD0002DF00DC004F0B00E056E100E066E1050C5
:105AE0001FEC2EF01200060E046EAB0E056E100EAB
:105AF000066E010E1FEC2EF0000E046EBAC00AF006
:105B0000BBC00BF00A3A0B3AF00E0B160A500F0B03
:105B10000B12F00E0A16BC0E0A24056E010E0B20A5
:105B2000066E020E1FEC2EF0A3EF2DF081A09BEF6E
:105B30002DF09DEF2DF0A3EF2DF0BAC008F0BBC003
:105B400009F0CDEF2DF081AAA8EF2DF0AAEF2DF0EE
:105B500096EF2DF0410E0A6EEE0EE82EFED70A2EBD
:105B6000FCD700D00001BBBFC1EF2DF0BB5107E156
:105B7000030EBA5DD8B0BFEF2DF0C1EF2DF0C5EF29
:105B80002DF0BA4BBB2BC9EF2DF0000EBB6F000EF2
:105B9000BA6FE4EC30F073EF2DF012006CEC2EF0E5
:105BA00073EC2DF008C0B0F009C0B1F0E4EC30F0B7
:105BB000FCEF2DF0000E046E8C0E056E100E066EBE
:105BC000010E1FEC2EF01DEF2EF07FEC29F01DEFE3
:105BD0002EF0DCEC1CF01DEF2EF0DFEC30F01DEFB2
:105BE0002EF0000E046E8C0E056E100E066E010E69
:105BF0001FEC2EF01DEF2EF0010E0001B025AE6F50
:105C0000000EB121AF6FAF51000AD8B40AEF2EF0E9
:105C1000F1EF2DF0AE51010AD8B4DAEF2DF0030AFE
:105C2000D8B4E5EF2DF0010AD8B4E9EF2DF0070A5A
:105C3000D8B4EDEF2DF0F1EF2DF000EF00F0076E8E
:105C40000704D8A426EF2EF028EF2EF02EEF2EF02A
:105C500004508009E9EC2FF052EF2EF0020E0718E5
:105C6000D8A435EF2EF037EF2EF052EF2EF004507F
:105C7000C009E9EC2FF052EF2EF005C0F6FF06C088
:105C8000F7FF000EF86E0F0EF76403D00800F55012
:105C900005D0F6CFE9FFF7CFEAFFEF50BEEC2FF0CB
:105CA000054A062A05C0F6FF06C0F7FF000EF86E8B
:105CB0000F0EF76403D00800F55005D0F6CFE9FFCA
:105CC000F7CFEAFFEF500009D8A469EF2EF06BEF91
:105CD0002EF03DEF2EF01200000E956E000E8C6E31
:105CE000070E046E7D0EE82EFED7042EFCD700F0C2
:105CF000030EE9EC2FF0210E046E760EE82EFED78F
:105D0000042EFCD700D0030EE9EC2FF0210E046E18
:105D1000760EE82EFED7042EFCD700D0030EE9EC59
:105D20002FF0210E046E760EE82EFED7042EFCD73F
:105D300000D0030EE9EC2FF0210E046E760EE82E53
:105D4000FED7042EFCD700D0020EE9EC2FF0280E6F
:105D5000E9EC2FF0140EE9EC2FF00C0EE9EC2FF02B
:105D60001200106E0EC001F00FC002F0000E046EA3
:105D70000A0E036EF3EC2EF00150300F0001F26FAB
:105D80000EC008F00FC009F0000E0B6E0A0E0A6E6E
:105D90005FEC2FF00850300F0001F36F000EF46F2E
:105DA000F20E016E000E026E91EC2FF00009D8B4D5
:105DB000DCEF2EF0DEEF2EF0E9EF2EF00DC004F058
:105DC000F20E056E000E066E10501FEC2EF0F2EF74
:105DD0002EF00DC004F0A50E056E100E066E1050CC
:105DE0001FEC2EF01200000E066E000E056E035022
:105DF0000410D8B4FEEF2EF000EF2FF028EF2FF0B4
:105E0000010E076E08EF2FF0D89003360436072AEC
:105E100004AE0DEF2FF00FEF2FF004EF2FF0D8901E
:105E2000053606360350015C04500258D8A01BEF1B
:105E30002FF01DEF2FF022EF2FF00350015E0450E2
:105E4000025A0580D89004320332072E0FEF2FF04C
:105E500005C001F006C002F01200B00EF66E600E32
:105E6000F76E000EF86E01EEBCF010EE40F0090087
:105E7000F5CFEEFFE550E150FAE1D00EF66E610E7F
:105E8000F76E000EF86E0900F5CFF5F00900F5CFBA
:105E9000F6F001EEFCF014EE32F0EE6AE550E1505F
:105EA000FCE1E250FAE100EEB2F0430EEE6AE806E1
:105EB000FDE15F6A000EF86E0001CEEF2DF00A5092
:105EC0000B10D8B466EF2FF068EF2FF08CEF2FF0A7
:105ED000010E0C6E70EF2FF0D8900A360B360C2A9C
:105EE0000BAE75EF2FF077EF2FF06CEF2FF00A501D
:105EF000085C0B500958D8A080EF2FF082EF2FF0EC
:105F000086EF2FF00A50085E0B50095AD8900B32DA
:105F10000A320C2E77EF2FF008C008F009C009F004
:105F20001200B0EF2FF001C0D9FF02C0DAFF2F0E30
:105F3000DF649DEF2FF09FEF2FF0ABEF2FF001C04C
:105F4000D9FF02C0DAFF390EDF64A9EF2FF0ABEF03
:105F50002FF0AEEF2FF0000EBDEF2FF0014A022A16
:105F600001C0D9FF02C0DAFFDF50D8A4BAEF2FF08A
:105F7000BCEF2FF093EF2FF0010E1200036E8C8414
:105F80008CCF01F00F0E01160350F00B01108C6E38
:105F90008C86210E016E760EE82EFED7012EFCD7E0
:105FA00000D08C968CCF01F00F0E011603C002F0CA
:105FB0000F0E02160238F00B01108C6E8C86210E2B
:105FC000016E760EE82EFED7012EFCD700D08C96FF
:105FD0001200036E8C948CCF01F00F0E011603504B
:105FE000F00B01108C6E8C86210E016E760EE82E61
:105FF000FED7012EFCD700D08C968CCF01F00F0E6F
:10600000011603C002F00F0E02160238F00B011049
:106010008C6E8C86210E016E760EE82EFED7012E38
:10602000FCD700D08C961200000E2E1A000E2F1AEC
:10603000000E301A800E311A2AC001F02BC002F077
:106040002CC003F02DC004F02EC005F02FC006F0C8
:1060500030C007F031C008F023EC22F001C02AF074
:1060600002C02BF003C02CF004C02DF01200066E0D
:106070000604D8A43EEF30F040EF30F046EF30F0A9
:1060800004508009E9EC2FF053EF30F0020E0618AF
:10609000D8A44DEF30F04FEF30F053EF30F0045014
:1060A000C009E9EC2FF00550300FBEEC2FF01200C4
:1060B00057454C434F4D45000000000000000000D4
:1060C000312E4C4F4F4D2053455454494E475300A9
:1060D000322E44484F54492053455454494E475357
:1060E000332E52455345542053455454494E47533B
:1060F000056E0F0EE9EC2FF00504D8A482EF30F006
:1061000084EF30F08AEF30F004508009E9EC2FF092
:1061100097EF30F0020E0518D8A491EF30F093EF0E
:1061200030F097EF30F00450C009E9EC2FF0120086
:106130000150021003100410D8B4A1EF30F0A3EF07
:1061400030F0ABEF30F0000E011A000E021A000E14
:10615000031A800E041A01C001F002C002F003C04D
:1061600003F004C004F01200B2C005F0B3C006F0A2
:10617000B4C007F0B5C008F001C005F002C006F0D9
:1061800003C007F004C008F0089E05C001F006C077
:1061900002F007C003F008C004F01200FF0E056E05
:1061A000FF0E066EFF0E076E7F0E086E05C001F033
:1061B00006C002F007C003F008C004F01200E4ECCF
:1061C00030F0E1EF30F01200010EE9EC2FF0120098
:0261D000F06479
:020000040020DA
:08000000FFFFFFFFFFFFFFFF00
:020000040030CA
:0E000000FFE2B03CFF2585FF0FC00FE00F4070
:00000001FF
