:040000001AEF2EF0D5
:101000000000000000DCCFD1350000000000C0155A
:101010003F6042A20D70A5EC363BAAB83F4F387630
:101020003F3CAA38338CBEBF350072313F18723155
:101030003F4CBB31330EEADDB555B38A38610B3610
:10104000BBABAA2A3E42F1533E55326C3E05A38B00
:101050003EABAAAA3EB76DDB3E9A99193F6042A209
:101060000DCAF249710000804B0000803F0000C0B3
:101070003F00AAB83FC623F6B80040763F494E5617
:10108000414C4944204F5054494F4E004E4F204F41
:10109000462053544550533A00463A304E3A305069
:1010A0003A300048656C6C6F003030303000503A98
:0510B00000573A0000AA
:1010B60084C0B8F185C0B9F186C0BAF187C0BBF16A
:1010C600B8C160F1B9C161F1BAC162F1BBC163F1E6
:1010D60088C0B8F189C0B9F18AC0BAF18BC0BBF13A
:1010E600B8C184F1B9C185F1BAC186F1BBC187F136
:1010F600FF0E01016015A86FFF0E6115A96FFF0EA7
:101106006215AA6F7F0E6315AB6FFF0E8415986F7D
:10111600FF0E8515996FFF0E86159A6F7F0E871540
:101126009B6F985199119A119B11D8A49DEF08F0C5
:101136009FEF08F0AAEF08F0000E0001846F000E82
:10114600856F800E866F3F0E876FD6EF1CF0800E80
:10115600621909E13F0E631960116111D8A4B6EF57
:1011660008F0B8EF08F0C3EF08F0000E0001846F36
:10117600000E856F800E866F3F0E876FD6EF1CF0D0
:10118600ABBFD4EF08F0A805000EA959800EAA59E6
:101196007F0EAB59D8B0D2EF08F0D4EF08F0E5EFE8
:1011A60008F09BBFE3EF08F09805000E9959800EF2
:1011B6009A597F0E9B59D8A0E3EF08F0E5EF08F0A7
:1011C60001EF09F084C001F085C002F086C003F08B
:1011D60087C004F088C005F089C006F08AC007F011
:1011E6008BC008F037EC1FF001C084F002C085F018
:1011F60003C086F004C087F0D6EF1CF0000E506FD7
:10120600000E516F000E526F000E536F63BF10EF4A
:1012160009F00EEF09F0BBEF09F09BBF1CEF09F0D8
:10122600800E9A5D4B0E9B59D8A01CEF09F01EEF5D
:1012360009F028EF09F0020E506F000E516F000EF4
:10124600526F000E536FBBEF09F09BBF34EF09F0EE
:10125600800E9A5D3F0E9B59D8A034EF09F036EF09
:1012660009F0BBEF09F0170E4B6E98C14CF099C10F
:101276004DF09AC14EF09BC14FF04B6645EF09F019
:101286004DEF09F04F344F324E324D324C324B2E29
:1012960040EF09F0810E4C240101A06FFF0E4D2096
:1012A600A16FFF0E4E20A26FFF0E4F20A36FA0511D
:1012B60017084B6E98C14CF099C14DF09AC14EF08B
:1012C6009BC14FF04B666AEF09F072EF09F04F349D
:1012D6004F324E324D324C324B2E65EF09F04CC038
:1012E600ACF14DC0ADF14EC0AEF14FC0AFF1010152
:1012F600A05117084B6EACC14CF0ADC14DF0AEC15C
:101306004EF0AFC14FF04B2A8EEF09F0D8904C3615
:101316004D364E364F364B2E89EF09F098514C1804
:101326000DE199514D180AE19A514E1807E19B516A
:101336004F18D8A4A1EF09F0A3EF09F0BBEF09F00D
:10134600010EAC154B6E000EAD154C6E000EAE15B3
:101356004D6E000EAF154E6E4B500208506F000ECC
:101366004C54516F000E4D54526F000E4E54536F35
:10137600800E9A1909E17F0E9B1998119911D8A42C
:10138600C7EF09F0C9EF09F035EF0AF0800EAA1988
:1013960009E13F0EAB19A811A911D8A4D5EF09F0A0
:1013A600D7EF09F0E2EF09F0000E0001846F000E9E
:1013B600856F800E866F3F0E876FD6EF1CF0ABBF32
:1013C600F1EF09F0A805000EA959800EAA593F0EA3
:1013D600AB59D8A0F1EF09F0F3EF09F00FEF0AF0DF
:1013E60087BFFAEF09F0F8EF09F005EF0AF0000EF3
:1013F6000001846F000E856F000E866F000E876FEA
:10140600D6EF1CF088C084F089C085F08AC086F0CB
:101416008BC087F0D6EF1CF087BF16EF0AF014EFEB
:101426000AF02AEF0AF088C001F089C002F08AC0EB
:1014360003F08BC004F011EC2FF001C084F002C061
:1014460085F003C086F004C087F0D6EF1CF0000ECE
:101456000001846F000E856F000E866F000E876F89
:10146600D6EF1CF0800E9A1909E13F0E9B199811D0
:101476009911D8A441EF0AF043EF0AF070EF0AF091
:1014860087BF4AEF0AF048EF0AF066EF0AF0000E4F
:10149600326E000E336E800E346E3F0E356E84C093
:1014A60036F085C037F086C038F087C039F0ACEC2E
:1014B60023F032C084F033C085F034C086F035C0E6
:1014C60087F0D6EF1CF084C084F085C085F086C016
:1014D60086F087C087F0D6EF1CF0400E871984117E
:1014E60085118611D8A47AEF0AF07CEF0AF098EFFE
:1014F6000AF084C011F085C012F086C013F087C0D0
:1015060014F084C015F085C016F086C017F087C0A9
:1015160018F097EC21F011C084F012C085F013C0CA
:1015260086F014C087F0D6EF1CF03F0E87198411A1
:1015360085118611D8A4A2EF0AF0A4EF0AF0BFEF36
:101546000AF063BFA9EF0AF0ABEF0AF0BFEF0AF0AB
:1015560084C03EF085C03FF086C040F087C041F0B1
:10156600D7EC1CF03EC084F03FC085F040C086F04A
:1015760041C087F0D6EF1CF084C001F085C002F0B0
:1015860086C003F087C004F02DEC2FF001C070F187
:1015960002C071F103C072F104C073F1800E010143
:1015A600AA190BE17F0EAB19A811A911D8B4DEEF69
:1015B6000AF0E0EF0AF0F9EF0AF0A851A911AA1112
:1015C600AB11D8B4E9EF0AF0EBEF0AF0F9EF0AF045
:1015D600800EAA1909E13F0EAB19A811A911D8A4CA
:1015E600F7EF0AF0F9EF0AF0B9EF0BF070C1B4F1BA
:1015F60071C1B5F172C1B6F173C1B7F187BF08EF1A
:101606000BF006EF0BF022EF0BF0000E326E000E21
:10161600336E800E346E3F0E356EB4C136F0B5C1F2
:1016260037F0B6C138F0B7C139F0ACEC23F032C0B0
:10163600B4F133C0B5F134C0B6F135C0B7F101012C
:1016460063BF2AEF0BF028EF0BF0AFEF0BF0000EA5
:10165600A8254B6E000EA9214C6E800EAA214D6E58
:10166600C00EAB214E6E50514B104F6E51514C1067
:10167600506E52514D10516E53514E10526E4F5086
:10168600501051105210D8A44BEF0BF04DEF0BF049
:1016960092EF0BF0000E0001B76F210EB66FB4C1CA
:1016A6002EF0B5C12FF0B6C130F0B7C131F0B4C1DC
:1016B6002AF0B5C12BF0B6C12CF0B7C12DF0CEEC97
:1016C6002EF02AC032F02BC033F02CC034F02DC0DF
:1016D60035F0B4C12EF0B5C12FF0B6C130F0B7C1A8
:1016E60031F0B4C12AF0B5C12BF0B6C12CF0B7C1A8
:1016F6002DF0CEEC2EF02AC036F02BC037F02CC0E1
:1017060038F02DC039F0ACEC23F032C0B4F133C060
:10171600B5F134C0B6F135C0B7F1AFEF0BF05005F7
:10172600511152115311D8A49BEF0BF09DEF0BF002
:10173600AFEF0BF0B4C101F0B5C102F0B6C103F0D2
:10174600B7C104F011EC2FF001C0B4F102C0B5F13D
:1017560003C0B6F104C0B7F1B4C184F0B5C185F0D9
:10176600B6C186F0B7C187F0D6EF1CF0000E886FC1
:10177600000E896F800E8A6F3F0E8B6F63BFC8EFB6
:101786000BF0C6EF0BF02BEF0CF05051511152112C
:101796005311D8A4D1EF0BF0D3EF0BF018EF0CF0E8
:1017A600000E0001B76F210EB66F84C02EF085C003
:1017B6002FF086C030F087C031F084C02AF085C093
:1017C6002BF086C02CF087C02DF0CEEC2EF02AC070
:1017D60032F02BC033F02CC034F02DC035F084C06D
:1017E6002EF085C02FF086C030F087C031F084C05F
:1017F6002AF085C02BF086C02CF087C02DF0CEECE9
:101806002EF02AC036F02BC037F02CC038F02DC091
:1018160039F0ACEC23F032C084F033C085F034C02C
:1018260086F035C087F0D6EF1CF0500551115211E5
:101836005311D8A421EF0CF023EF0CF02BEF0CF092
:10184600000E886F000E896F800E8A6FBF0E8B6F39
:101856009BBF3AEF0CF09805000E9959000E9A5965
:101866004D0E9B59D8A03AEF0CF03CEF0CF0C1EFAF
:101876000EF0ABBF4EEF0CF0F80EA85DFF0EA959A7
:101886007F0EAA593F0EAB59D8B04CEF0CF04EEF75
:101896000CF0C1EF0CF087BF53EF0CF055EF0CF0D6
:1018A6008BEF0CF0600E156E420E166EA20E176EC2
:1018B6000D0E186E88C111F089C112F08AC113F09D
:1018C6008BC114F097EC21F011C0A4F112C0A5F160
:1018D60013C0A6F114C0A7F1A4C111F0A5C112F05E
:1018E600A6C113F0A7C114F0600E156E420E166E57
:1018F600A20E176E0D0E186E97EC21F011C084F033
:1019060012C085F013C086F014C087F0D6EF1CF025
:10191600CA0E156EF20E166E490E176E710E186E01
:1019260088C111F089C112F08AC113F08BC114F07D
:1019360097EC21F011C0A4F112C0A5F113C0A6F1D5
:1019460014C0A7F1A4C111F0A5C112F0A6C113F0ED
:10195600A7C114F0CA0E156EF20E166E490E176E5A
:10196600710E186E97EC21F011C084F012C085F04C
:1019760013C086F014C087F0D6EF1CF0ABBFD1EFD2
:101986000CF0080EA85D000EA959800EAA593F0E4C
:10199600AB59D8A0D1EF0CF0D3EF0CF04EEF0DF011
:1019A60087BFE2EF0CF087518611851106E18405A9
:1019B600D8B0E0EF0CF0E2EF0CF018EF0DF0600E8F
:1019C600156E420E166EA20E176E0D0E186E88C19B
:1019D60011F089C112F08AC113F08BC114F097EC93
:1019E60021F011C0A4F112C0A5F113C0A6F114C0D4
:1019F600A7F1A4C111F0A5C112F0A6C113F0A7C1A9
:101A060014F0600E156E420E166EA20E176E0D0EB7
:101A1600186E97EC21F011C084F012C085F013C047
:101A260086F014C087F0D6EF1CF0CA0E156EF20EC3
:101A3600166E490E176E710E186E88C111F089C1A7
:101A460012F08AC113F08BC114F097EC21F011C08B
:101A5600A4F112C0A5F113C0A6F114C0A7F1A4C148
:101A660011F0A5C112F0A6C113F0A7C114F0CA0E59
:101A7600156EF20E166E490E176E710E186E97ECF5
:101A860021F011C084F012C085F013C086F014C096
:101A960087F0D6EF1CF070C101F071C102F072C17F
:101AA60003F073C104F0000E056E000E066E800E84
:101AB600076EBF0E086E37EC1FF001C0B0F102C012
:101AC600B1F103C0B2F104C0B3F1000E156E000E01
:101AD600166E800E176E3E0E186EB0C111F0B1C1B3
:101AE60012F0B2C113F0B3C114F097EC21F011C09B
:101AF6002EF012C02FF013C030F014C031F0AB0E30
:101B06002A6EAA0E2B6EAA0E2C6E3E0E2D6ECEECF3
:101B16002EF02AC0A4F12BC0A5F12CC0A6F12DC031
:101B2600A7F1B0C115F0B1C116F0B2C117F0B3C13B
:101B360018F0B0C111F0B1C112F0B2C113F0B3C1C7
:101B460014F097EC21F011C054F112C055F113C0F6
:101B560056F114C057F1B0C115F0B1C116F0B2C1BB
:101B660017F0B3C118F0A4C111F0A5C112F0A6C1B7
:101B760013F0A7C114F097EC21F011C02EF012C09B
:101B86002FF013C030F014C031F0000E2A6E000E94
:101B96002B6E000E2C6E3F0E2D6ECEEC2EF02AC054
:101BA60048F12BC049F12CC04AF12DC04BF154C16C
:101BB60011F055C112F056C113F057C114F048C1C7
:101BC60015F049C116F04AC117F04BC118F097EC51
:101BD60021F011C044F112C045F113C046F114C002
:101BE60047F1B0C111F0B1C112F0B2C113F0B3C1E7
:101BF60014F0000E156EAA0E166EB80E176E3F0E76
:101C0600186E97EC21F011C074F112C075F113C073
:101C160076F114C077F1700E156EA50E166EEC0EE9
:101C2600176E360E186EB0C111F0B1C112F0B2C106
:101C360013F0B3C114F097EC21F011C02AF012C0D2
:101C46002BF013C02CF014C02DF03B0E156EAA0E0F
:101C5600166EB80E176E3F0E186E44C111F045C1D0
:101C660012F046C113F047C114F097EC21F011C0F1
:101C76002EF012C02FF013C030F014C031F0CEECAD
:101C86002EF02AC078F12BC079F12CC07AF12DC044
:101C96007BF174C101F075C102F076C103F077C122
:101CA60004F078C105F079C106F07AC107F07BC16E
:101CB60008F037EC1FF001C080F102C081F103C0CB
:101CC60082F104C083F180C1B8F181C1B9F182C14A
:101CD600BAF183C1BBF1B8C190F1B9C191F1BAC1F2
:101CE60092F1BBC193F1000E01019015B86FF00E91
:101CF6009115B96FFF0E9215BA6FFF0E9315BB6F54
:101D0600B8C180F1B9C181F1BAC182F1BBC183F119
:101D160074C12EF075C12FF076C130F077C131F065
:101D260080C12AF081C12BF082C12CF083C12DF035
:101D3600CEEC2EF02AC094F12BC095F12CC096F172
:101D46002DC097F178C12AF079C12BF07AC12CF019
:101D56007BC12DF094C12EF095C12FF096C130F0C5
:101D660097C131F0CEEC2EF02AC01CF12BC01DF12C
:101D76002CC01EF12DC01FF109EF16F0000E7C6F6E
:101D8600000E7D6F000E7E6F000E7F6FABBFD7EF2C
:101D96000EF0AB5107E1800EAA5DD8B0D5EF0EF07C
:101DA600D7EF0EF00AEF0FF070C111F071C112F00B
:101DB60072C113F073C114F0000E156E000E166E8C
:101DC600800E176E4B0E186E97EC21F011C070F155
:101DD60012C071F113C072F114C073F1E80E010163
:101DE6007C27FF0E7D23FF0E7E23FF0E7F2370C10F
:101DF600B8F171C1B9F172C1BAF173C1BBF1B8C121
:101E0600A8F1B9C1A9F1BAC1AAF1BBC1ABF1170ECC
:101E16004B6EA8C14CF0A9C14DF0AAC14EF0ABC1A2
:101E26004FF04B6619EF0FF021EF0FF04F344F32A2
:101E36004E324D324C324B2E14EF0FF0810E4C24A5
:101E4600506EFF0E4D20516EFF0E4E20526EFF0E4D
:101E56004F20536E505001017C2751507D23525024
:101E66007E2353507F23FF0EA815AC6FFF0EA915D6
:101E7600AD6F7F0EAA15AE6F000EAB15AF6F000EDD
:101E8600AC11A86F000EAD11A96F800EAE11AA6F2E
:101E96003F0EAF11AB6FAFBF60EF0FF0AF510BE16D
:101EA600720EAC5DC40EAD591C0EAE59D8B05EEFC5
:101EB6000FF060EF0FF06AEF0FF0000EA06F000E4C
:101EC600A16F000EA26F000EA36F9CEF0FF0AFBFC5
:101ED6007CEF0FF0AF510BE1D70EAC5DB30EAD59F1
:101EE6005D0EAE59D8B07AEF0FF07CEF0FF086EFAB
:101EF6000FF0010EA06F000EA16F000EA26F000E74
:101F0600A36F9CEF0FF0000EA06F000EA16F000EE6
:101F1600A26F000EA36F010E7C27000E7D237E2389
:101F26007F23000EA827000EA923800EAA23FF0EEA
:101F3600AB23A8C1B8F1A9C1B9F1AAC1BAF1ABC125
:101F4600BBF1B8C170F1B9C171F1BAC172F1BBC1CF
:101F560073F170C12AF071C12BF072C12CF073C1FC
:101F66002DF0A0C14BF0A1C14CF0D8904B364C36A9
:101F7600D8904B364C36690E4B24F66E100E4C201C
:101F8600F76E0900F5CF2EF00900F5CF2FF0090006
:101F9600F5CF30F00A00F5CF31F0CEEC2EF02AC0A6
:101FA60074F12BC075F12CC076F12DC077F1000EBF
:101FB600326E000E336E800E346E3F0E356E70C17B
:101FC60005F071C106F072C107F073C108F0A0C137
:101FD6004BF0A1C14CF0D8904B364C36D8904B36CE
:101FE6004C36690E4B24F66E100E4C20F76E090027
:101FF600F5CF01F00900F5CF02F00900F5CF03F0A7
:102006000A00F5CF04F037EC1FF001C036F002C02D
:1020160037F003C038F004C039F0ACEC23F032C01E
:1020260078F133C079F134C07AF135C07BF174C1EF
:1020360011F075C112F076C113F077C114F078C1B2
:1020460015F079C116F07AC117F07BC118F097EC3C
:1020560021F011C05CF112C05DF113C05EF114C035
:102066005FF15CC16CF15DC16DF15EC16EF15FC186
:102076006FF16CC1B8F16DC1B9F16EC1BAF16FC142
:10208600BBF1B8C190F1B9C191F1BAC192F1BBC12E
:1020960093F1000E01019015B86FF00E9115B96F0E
:1020A600FF0E9215BA6FFF0E9315BB6FB8C16CF198
:1020B600B9C16DF1BAC16EF1BBC16FF1A8C14BF0E8
:1020C600A9C14CF0AAC14DF0ABC14EF04E344E3210
:1020D6004D324C324B32000E4B144F6EF00E4C14F8
:1020E600506EFF0E4D14516EFF0E4E14526E000EC2
:1020F6004F10906F000E5010916F000E5110926F9E
:10210600200E5210936FA0C14BF0A1C14CF0A2C19A
:102116004DF0A3C14EF0150ED8904B364C364D36C9
:102126004E36E82E8FEF10F090514B244F6E9151A2
:102136004C20506E92514D20516E93514E20526E4E
:10214600000E4F24B86F000E5020B96F400E51207C
:10215600BA6F000E5220BB6FB8C168F1B9C169F100
:10216600BAC16AF1BBC16BF1A0C14BF0A1C14CF081
:10217600D8904B364C36D8904B364C36690E4B249D
:10218600F66E100E4C20F76E0900F5CF2EF0090002
:10219600F5CF2FF00900F5CF30F00A00F5CF31F07A
:1021A60068C12AF069C12BF06AC12CF06BC12DF011
:1021B600CEEC2EF02AC094F12BC095F12CC096F1EE
:1021C6002DC097F170C12AF071C12BF072C12CF0AD
:1021D60073C12DF094C12EF095C12FF096C130F049
:1021E60097C131F0CEEC2EF02AC034F12BC035F178
:1021F6002CC036F12DC037F168C115F069C116F053
:102206006AC117F06BC118F06CC111F06DC112F004
:102216006EC113F06FC114F097EC21F011C02EF0CF
:1022260012C02FF013C030F014C031F074C12AF080
:1022360075C12BF076C12CF077C12DF0CEEC2EF0C7
:102246002AC094F12BC095F12CC096F12DC097F1C0
:1022560034C115F035C116F036C117F037C118F084
:102266006CC111F06DC112F06EC113F06FC114F0A4
:1022760097EC21F011C02EF012C02FF013C030F0F1
:1022860014C031F094C12AF095C12BF096C12CF000
:1022960097C12DF0CEEC2EF02AC054F12BC055F18B
:1022A6002CC056F12DC057F154C111F055C112F092
:1022B60056C113F057C114F078C115F079C116F064
:1022C6007AC117F07BC118F097EC21F011C030F1FC
:1022D60012C031F113C032F114C033F15CC111F0F8
:1022E6005DC112F05EC113F05FC114F05CC115F060
:1022F6005DC116F05EC117F05FC118F097EC21F0D2
:1023060011C08CF112C08DF113C08EF114C08FF183
:10231600550E056E320E066E6C0E076E3E0E086E7C
:10232600420E156EF10E166E530E176E3E0E186E99
:102336008CC111F08DC112F08EC113F08FC114F053
:1023460097EC21F011C001F012C002F013C003F0A7
:1023560014C004F037EC1FF001C0A4F102C0A5F1CF
:1023660003C0A6F104C0A7F1050E056EA30E066E06
:102376008B0E076E3E0E086E8CC115F08DC116F0E1
:102386008EC117F08FC118F0A4C111F0A5C112F0CB
:10239600A6C113F0A7C114F097EC21F011C001F00B
:1023A60012C002F013C003F014C004F037EC1FF0A3
:1023B60001C054F102C055F103C056F104C057F1F3
:1023C600AB0E056EAA0E066EAA0E076E3E0E086EC0
:1023D6008CC115F08DC116F08EC117F08FC118F0A3
:1023E60054C111F055C112F056C113F057C114F083
:1023F60097EC21F011C001F012C002F013C003F0F7
:1024060014C004F037EC1FF001C048F102C049F1D6
:1024160003C04AF104C04BF1B70E056E6D0E066E91
:10242600DB0E076E3E0E086E8CC115F08DC116F0E0
:102436008EC117F08FC118F048C111F049C112F0D2
:102446004AC113F04BC114F097EC21F011C001F012
:1024560012C002F013C003F014C004F037EC1FF0F2
:1024660001C038F102C039F103C03AF104C03BF1B2
:102476009A0E056E990E066E190E076E3F0E086EC1
:102486008CC115F08DC116F08EC117F08FC118F0F2
:1024960038C111F039C112F03AC113F03BC114F042
:1024A60097EC21F011C001F012C002F013C003F046
:1024B60014C004F037EC1FF001C000F102C001F1B6
:1024C60003C002F104C003F18CC115F08DC116F0F2
:1024D6008EC117F08FC118F08CC111F08DC112F0AA
:1024E6008EC113F08FC114F097EC21F011C004F1E6
:1024F60012C005F113C006F114C007F100C111F0B6
:1025060001C112F002C113F003C114F004C115F0A9
:1025160005C116F006C117F007C118F097EC21F0B7
:1025260011C04CF112C04DF113C04EF114C04FF161
:1025360030C115F031C116F032C117F033C118F0B1
:102546005CC105F05DC106F05EC107F05FC108F031
:102556006CC101F06DC102F06EC103F06FC104F0F1
:1025660037EC1FF001C011F002C012F003C013F0E7
:1025760004C014F097EC21F011C058F112C059F1C3
:1025860013C05AF114C05BF14CC101F04DC102F009
:102596004EC103F04FC104F058C105F059C106F011
:1025A6005AC107F05BC108F037EC1FF001C04CF1CF
:1025B60002C04DF103C04EF104C04FF16CC111F0E1
:1025C6006DC112F06EC113F06FC114F06CC115F03D
:1025D6006DC116F06EC117F06FC118F097EC21F0BF
:1025E60011C08CF112C08DF113C08EF114C08FF1A1
:1025F600000E056E000E066E400E076E400E086E4B
:102606008CC101F08DC102F08EC103F08FC104F0C0
:1026160037EC1FF001C058F102C059F103C05AF15E
:1026260004C05BF158C101F059C102F05AC103F070
:102636005BC104F04CC105F04DC106F04EC107F078
:102646004FC108F037EC1FF001C068F102C069F114
:1026560003C06AF104C06BF168C1B8F169C1B9F190
:102666006AC1BAF16BC1BBF1B8C190F1B9C191F1C0
:10267600BAC192F1BBC193F1000E01019015B86F7A
:10268600F00E9115B96FFF0E9215BA6FFF0E9315E6
:10269600BB6FB8C168F1B9C169F1BAC16AF1BBC112
:1026A6006BF1000E056E000E066E400E076EC00E34
:1026B600086E68C101F069C102F06AC103F06BC11E
:1026C60004F037EC1FF001C03CF102C03DF103C03D
:1026D6003EF104C03FF18CC12EF08DC12FF08EC1AA
:1026E60030F08FC131F03CC12AF03DC12BF03EC124
:1026F6002CF03FC12DF0CEEC2EF02AC040F12BC0BD
:1027060041F12CC042F12DC043F14CC12AF04DC11C
:102716002BF04EC12CF04FC12DF040C12EF041C11F
:102726002FF042C130F043C131F0CEEC2EF02AC07A
:1027360034F12BC035F12CC036F12DC037F16CC108
:1027460011F06DC112F06EC113F06FC114F068C1C3
:1027560015F069C116F06AC117F06BC118F097EC55
:1027660021F011C074F112C075F113C076F114C0D6
:1027760077F168C115F069C116F06AC117F06BC12F
:1027860018F030C111F031C112F032C113F033C16B
:1027960014F097EC21F011C001F012C002F013C042
:1027A60003F014C004F05CC115F05DC116F05EC103
:1027B60017F05FC118F034C111F035C112F036C1FF
:1027C60013F037C114F097EC21F011C005F012C0D8
:1027D60006F013C007F014C008F037EC1FF001C074
:1027E60078F102C079F103C07AF104C07BF174C1BB
:1027F60001F075C102F076C103F077C104F078C12B
:1028060005F079C106F07AC107F07BC108F037EC14
:102816001FF001C09CF102C09DF103C09EF104C0EF
:102826009FF19CC1B8F19DC1B9F19EC1BAF19FC19A
:10283600BBF1B8C190F1B9C191F1BAC192F1BBC176
:1028460093F1000E01019015B86FF00E9115B96F56
:10285600FF0E9215BA6FFF0E9315BB6FB8C19CF1B0
:10286600B9C19DF1BAC19EF1BBC19FF174C12EF0F1
:1028760075C12FF076C130F077C131F09CC12AF0D6
:102886009DC12BF09EC12CF09FC12DF0CEEC2EF0F9
:102896002AC094F12BC095F12CC096F12DC097F16A
:1028A60078C12AF079C12BF07AC12CF07BC12DF0CA
:1028B60094C12EF095C12FF096C130F097C131F03A
:1028C600CEEC2EF02AC064F12BC065F12CC066F167
:1028D6002DC067F19CC111F09DC112F09EC113F08D
:1028E6009FC114F0000E156E400E166E760E176E12
:1028F6003F0E186E97EC21F011C020F112C021F1A5
:1029060013C022F114C023F14F0E156E380E166E49
:10291600760E176E3F0E186E64C111F065C112F087
:1029260066C113F067C114F097EC21F011C005F0F1
:1029360012C006F013C007F014C008F0C60E156EDC
:10294600230E166EF60E176EB80E186E9CC111F099
:102956009DC112F09EC113F09FC114F097EC21F0B7
:1029660011C001F012C002F013C003F014C004F04D
:1029760037EC1FF001C058F102C059F103C05AF1FB
:1029860004C05BF158C101F059C102F05AC103F00D
:102996005BC104F0A0C14BF0A1C14CF0D8904B36FE
:1029A6004C36D8904B364C36010E4B24F66E100E34
:1029B6004C20F76E0900F5CF05F00900F5CF06F0BB
:1029C6000900F5CF07F00A00F5CF08F037EC1FF045
:1029D60001C024F102C025F103C026F104C027F18D
:1029E6007CC101F07DC102F07EC103F07FC104F01D
:1029F600010E8EEC27F001C0B0F102C0B1F103C0A8
:102A0600B2F104C0B3F124C105F025C106F026C118
:102A160007F027C108F020C101F021C102F022C150
:102A260003F023C104F037EC1FF001C058F102C0D7
:102A360059F103C05AF104C05BF1A0C14BF0A1C12A
:102A46004CF0D8904B364C36D8904B364C36090E57
:102A56004B24F66E100E4C20F76E0900F5CF05F0EC
:102A66000900F5CF06F00900F5CF07F00A00F5CF0B
:102A760008F058C101F059C102F05AC103F05BC118
:102A860004F037EC1FF001C008F102C009F103C0E1
:102A96000AF104C00BF108C101F009C102F00AC134
:102AA60003F00BC104F0B0C105F0B1C106F0B2C12C
:102AB60007F0B3C108F037EC1FF001C080F102C087
:102AC60081F103C082F104C083F180C1B8F181C1F4
:102AD600B9F182C1BAF183C1BBF1B8C190F1B9C1F4
:102AE60091F1BAC192F1BBC193F1000E01019015AB
:102AF600B86FF00E9115B96FFF0E9215BA6FFF0EF3
:102B06009315BB6FB8C180F1B9C181F1BAC182F129
:102B1600BBC183F1B0C12EF0B1C12FF0B2C130F00C
:102B2600B3C131F080C12AF081C12BF082C12CF0F3
:102B360083C12DF0CEEC2EF02AC094F12BC095F176
:102B46002CC096F12DC097F1A0C14BF0A1C14CF05D
:102B5600D8904B364C36D8904B364C36090E4B2413
:102B6600F66E100E4C20F76E0900F5CF2EF0090018
:102B7600F5CF2FF00900F5CF30F00A00F5CF31F090
:102B860094C12AF095C12BF096C12CF097C12DF077
:102B9600CEEC2EF02AC040F12BC041F12CC042F100
:102BA6002DC043F120C12EF021C12FF022C130F0FB
:102BB60023C131F040C12AF041C12BF042C12CF0B3
:102BC60043C12DF0CEEC2EF02AC00CF12BC00DF136
:102BD6002CC00EF12DC00FF124C12AF025C12BF017
:102BE60026C12CF027C12DF00CC12EF00DC12FF0FF
:102BF6000EC130F00FC131F0CEEC2EF02AC01CF120
:102C06002BC01DF12CC01EF12DC01FF188C0B8F1DC
:102C160089C0B9F18AC0BAF18BC0BBF1B8C190F1D5
:102C2600B9C191F1BAC192F1BBC193F1000E010194
:102C36009015B86FF00E9115B96FFF0E9215BA6F19
:102C4600FF0E9315BB6FB8C128F1B9C129F1BAC1FE
:102C56002AF1BBC12BF180C115F081C116F082C1EA
:102C660017F083C118F028C12EF029C12FF02AC110
:102C760030F02BC131F088C02AF089C02BF08AC011
:102C86002CF08BC02DF0CEEC2EF02AC011F02BC00C
:102C960012F02CC013F02DC014F097EC21F011C0E7
:102CA60010F112C011F113C012F114C013F110C1CA
:102CB60001F011C102F012C103F013C104F01CC1EE
:102CC60015F01DC116F01EC117F01FC118F088C0FF
:102CD60011F089C012F08AC013F08BC014F097EC83
:102CE60021F011C005F012C006F013C007F014C0A1
:102CF60008F037EC1FF001C064F102C065F103C0B3
:102D060066F104C067F128C111F029C112F02AC189
:102D160013F02BC114F080C115F081C116F082C1E9
:102D260017F083C118F097EC21F011C09CF112C086
:102D36009DF113C09EF114C09FF164C101F065C1FD
:102D460002F066C103F067C104F09CC105F09DC1A5
:102D560006F09EC107F09FC108F037EC1FF001C0D6
:102D6600B4F102C0B5F103C0B6F104C0B7F1B4C105
:102D7600B8F1B5C1B9F1B6C1BAF1B7C1BBF1B8C1C5
:102D8600ACF1B9C1ADF1BAC1AEF1BBC1AFF1010150
:102D9600AFBFDAEF16F0AC05000EAD59000EAE5916
:102DA600430EAF59D8A0DAEF16F0DCEF16F012EFAB
:102DB60017F0CA0E156EF20E166E490E176E710ECC
:102DC600186E88C111F089C112F08AC113F08BC147
:102DD60014F097EC21F011C0A4F112C0A5F113C0B4
:102DE600A6F114C0A7F1A4C111F0A5C112F0A6C1A5
:102DF60013F0A7C114F0CA0E156EF20E166E490E28
:102E0600176E710E186E97EC21F011C084F012C087
:102E160085F013C086F014C087F0D6EF1CF0430E81
:102E2600AF19AC11AD11AE11D8A41CEF17F01EEFFF
:102E360017F091EF17F09CC12EF09DC12FF09EC1A7
:102E460030F09FC131F0B4C12AF0B5C12BF0B6C144
:102E56002CF0B7C12DF0CEEC2EF02AC032F02BC0EC
:102E660033F02CC034F02DC035F03C0E056EAA0EA2
:102E7600066E380E076E330E086E64C101F065C12A
:102E860002F066C103F067C104F037EC1FF001C021
:102E960036F002C037F003C038F004C039F0F5EC64
:102EA6002AF0D8B059EF17F05BEF17F053EF18F090
:102EB600CA0E156EF20E166E490E176E710E186E4C
:102EC60088C111F089C112F08AC113F08BC114F0C8
:102ED60097EC21F011C0A4F112C0A5F113C0A6F120
:102EE60014C0A7F1A4C111F0A5C112F0A6C113F038
:102EF600A7C114F0CA0E156EF20E166E490E176EA5
:102F0600710E186E97EC21F011C084F012C085F096
:102F160013C086F014C087F0D6EF1CF0FF0EAC1578
:102F26004B6EFF0EAD154C6EFF0EAE154D6E7F0E41
:102F3600AF154E6E4EBEACEF17F04B04000E4C585C
:102F4600160E4D58430E4E58D8A0ACEF17F0AEEF04
:102F560017F0E4EF17F0600E156E420E166EA20E15
:102F6600176E0D0E186E88C111F089C112F08AC154
:102F760013F08BC114F097EC21F011C0A4F112C02C
:102F8600A5F113C0A6F114C0A7F1A4C111F0A5C103
:102F960012F0A6C113F0A7C114F0600E156E420E12
:102FA600166EA20E176E0D0E186E97EC21F011C05C
:102FB60084F012C085F013C086F014C087F0D6EFF7
:102FC6001CF0160EAE1909E1C30EAF19AC11AD1106
:102FD600D8A4F0EF17F0F2EF17F053EF18F09CC1FA
:102FE6002EF09DC12FF09EC130F09FC131F0B4C1CB
:102FF6002AF0B5C12BF0B6C12CF0B7C12DF0CEEC3E
:103006002EF02AC032F02BC033F02CC034F02DC085
:1030160035F064C136F065C137F066C138F067C176
:1030260039F0F5EC2AF0D8A01BEF18F01DEF18F0D8
:1030360053EF18F0600E156E420E166EA20E176E46
:103046000D0E186E88C111F089C112F08AC113F0F5
:103056008BC114F097EC21F011C0A4F112C0A5F1B8
:1030660013C0A6F114C0A7F1A4C111F0A5C112F0B6
:10307600A6C113F0A7C114F0600E156E420E166EAF
:10308600A20E176E0D0E186E97EC21F011C084F08B
:1030960012C085F013C086F014C087F0D6EF1CF07E
:1030A600FF0E0101AC152C6FFF0EAD152D6FFF0E37
:1030B600AE152E6F7F0EAF152F6F170E4B6E2CC1F0
:1030C6004CF02DC14DF02EC14EF02FC14FF04B6686
:1030D6006FEF18F077EF18F04F344F324E324D3213
:1030E6004C324B2E6AEF18F0810E4C240101A06F72
:1030F600FF0E4D20A16FFF0E4E20A26FFF0E4F2038
:10310600A36F000E7C6F000E7D6F000E7E6F000EAB
:103116007F6F2FBF9BEF18F02C05000E2D59000E68
:103126002E593F0E2F59D8A09BEF18F09DEF18F09F
:103136007DEF19F0A0C14BF0010E4B26000E4C6E30
:10314600000E4D6E800E4E6E000E4F6E4B66AEEF4D
:1031560018F0B6EF18F04F344F324E324D324C3233
:103166004B2EA9EF18F00101AC514C247C6FAD51E8
:103176004D207D6FAE514E207E6FAF514F207F6F39
:10318600810E4B6EFF0E4C6EFF0E4D6EFF0E4E6E99
:10319600170E4F6E7CC150F07DC151F07EC152F0CA
:1031A6007FC153F04F66DAEF18F0E2EF18F05334B0
:1031B60053325232513250324F2ED5EF18F0505012
:1031C6004B240101A06F000E4C20A16F000E4D2074
:1031D600A26F000E4E20A36FA0C14BF0FF0E4C6EE7
:1031E600FF0E4D6E7F0E4E6E000E4F6E4B66FEEF5F
:1031F60018F006EF19F04F344F324E324D324C3242
:103206004B2EF9EF18F04C1C506E4D1C516E4E1C97
:10321600526E4F1C536E01017C515014B86F7D5194
:103226005114B96F7E515214BA6F7F515314BB6F4C
:10323600B8C1B0F1B9C1B1F1BAC1B2F1BBC1B3F114
:10324600A05117084B6EFF0E7C154C6EFF0E7D15B8
:103256004D6E7F0E7E154E6E000E7F154F6E000E64
:103266004C10506E000E4D10516E800E4E10526E68
:10327600000E4F10536E4B6643EF19F04BEF19F0EB
:10328600533453325232513250324B2E3EEF19F0F4
:1032960050C07CF151C07DF152C07EF153C07FF128
:1032A6000101AFBF5BEF19F059EF19F063EF19F0A9
:1032B6007F1F7E1F7D1F7C6D000E7D237E237F2357
:1032C6009CC12AF09DC12BF09EC12CF09FC12DF010
:1032D600B0C12EF0B1C12FF0B2C130F0B3C131F0A0
:1032E600CEEC2EF02AC09CF12BC09DF12CC09EF195
:1032F6002DC09FF164C101F065C102F066C103F003
:1033060067C104F09CC105F09DC106F09EC107F09F
:103316009FC108F037EC1FF001C0B0F102C0B1F157
:1033260003C0B2F104C0B3F1B0C1B8F1B1C1B9F193
:10333600B2C1BAF1B3C1BBF1B8C190F1B9C191F153
:10334600BAC192F1BBC193F1000E01019015B86F9D
:10335600800E9115B96FFF0E9215BA6FFF0E931579
:10336600BB6FB8C1B0F1B9C1B1F1BAC1B2F1BBC15D
:10337600B3F1B0C111F0B1C112F0B2C113F0B3C1D3
:1033860014F0000E156E720E166E310E176E3F0E8D
:10339600186E97EC21F011C074F112C075F113C0CC
:1033A60076F114C077F19CC12EF09DC12FF09EC11D
:1033B60030F09FC131F0B0C12AF0B1C12BF0B2C1DB
:1033C6002CF0B3C12DF0CEEC2EF02AC094F12BC018
:1033D60095F12CC096F12DC097F1180E156E720E50
:1033E600166E310E176E3F0E186E94C12EF095C1F3
:1033F6002FF096C130F097C131F064C12AF065C153
:103406002BF066C12CF067C12DF0CEEC2EF02AC051
:1034160011F02BC012F02CC013F02DC014F097EC55
:1034260021F011C014F112C015F113C016F114C029
:1034360017F114C101F015C102F016C103F017C14E
:1034460004F08C0E156EBE0E166EBF0E176E350E80
:10345600186EB0C111F0B1C112F0B2C113F0B3C110
:1034660014F097EC21F011C005F012C006F013C05D
:1034760007F014C008F037EC1FF001C078F102C065
:1034860079F103C07AF104C07BF174C101F075C112
:1034960002F076C103F077C104F078C105F079C176
:1034A60006F07AC107F07BC108F037EC1FF001C0C7
:1034B600B4F102C0B5F103C0B6F104C0B7F174C1EE
:1034C6002EF075C12FF076C130F077C131F0B4C15E
:1034D6002AF0B5C12BF0B6C12CF0B7C12DF0CEEC59
:1034E6002EF02AC094F12BC095F12CC096F12DC078
:1034F60097F178C12AF079C12BF07AC12CF07BC103
:103506002DF094C12EF095C12FF096C130F097C1E1
:1035160031F0CEEC2EF02AC044F12BC045F12CC080
:1035260046F12DC047F1B4C111F0B5C112F0B6C1D4
:1035360013F0B7C114F0B4C115F0B5C116F0B6C199
:1035460017F0B7C118F097EC21F011C0B0F112C016
:10355600B1F113C0B2F114C0B3F10E0E056EEA0E4E
:10356600066EDD0E076EB50E086E4C0E156EBB0EA2
:10357600166E310E176E330E186EB0C111F0B1C152
:1035860012F0B2C113F0B3C114F097EC21F011C0E0
:1035960001F012C002F013C003F014C004F037ECBF
:1035A6001FF001C0A4F102C0A5F103C0A6F104C03A
:1035B600A7F1550E056EB30E066E8A0E076E380E0F
:1035C600086EB0C115F0B1C116F0B2C117F0B3C1A3
:1035D60018F0A4C111F0A5C112F0A6C113F0A7C13D
:1035E60014F097EC21F011C001F012C002F013C0E4
:1035F60003F014C004F037EC1FF001C054F102C010
:1036060055F103C056F104C057F1610E056E0B0E5D
:10361600066E360E076EBB0E086EB0C115F0B1C150
:1036260016F0B2C117F0B3C118F054C111F055C16C
:1036360012F056C113F057C114F097EC21F011C0E7
:1036460001F012C002F013C003F014C004F037EC0E
:103656001FF001C048F102C049F103C04AF104C09D
:103666004BF1AB0E056EAA0E066E2A0E076E3E0EC7
:10367600086EB0C115F0B1C116F0B2C117F0B3C1F2
:1036860018F048C111F049C112F04AC113F04BC1FC
:1036960014F097EC21F011C001F012C002F013C033
:1036A60003F014C004F037EC1FF001C038F102C07B
:1036B60039F103C03AF104C03BF1B4C12AF0B5C1F7
:1036C6002BF0B6C12CF0B7C12DF0B0C115F0B1C1C9
:1036D60016F0B2C117F0B3C118F038C111F039C1F4
:1036E60012F03AC113F03BC114F097EC21F011C06F
:1036F6002EF012C02FF013C030F014C031F0CEEC13
:103706002EF02AC080F12BC081F12CC082F12DC091
:1037160083F1000E056E000E066E000E076EC00EDB
:10372600086E80C101F081C102F082C103F083C13D
:1037360004F037EC1FF001C036F002C037F003C0CA
:1037460038F004C039F080C115F081C116F082C18D
:1037560017F083C118F0B4C111F0B5C112F0B6C1AB
:1037660013F0B7C114F097EC21F011C032F012C07B
:1037760033F013C034F014C035F0ACEC23F032C093
:103786003CF133C03DF134C03EF135C03FF144C198
:1037960005F045C106F046C107F047C108F044C12F
:1037A60015F045C116F046C117F047C118F0B4C16F
:1037B60011F0B5C112F0B6C113F0B7C114F097EC11
:1037C60021F011C001F012C002F013C003F014C0C2
:1037D60004F037EC1FF001C018F102C019F103C064
:1037E6001AF104C01BF13CC12AF03DC12BF03EC1C9
:1037F6002CF03FC12DF018C12EF019C12FF01AC1BF
:1038060030F01BC131F0CEEC2EF02AC04CF12BC0AB
:103816004DF12CC04EF12DC04FF1B4C12EF0B5C103
:103826002FF0B6C130F0B7C131F04CC12AF04DC10E
:103836002BF04EC12CF04FC12DF0CEEC2EF02AC04D
:1038460094F12BC095F12CC096F12DC097F1000E86
:103856002A6E000E2B6E800E2C6E3F0E2D6E94C1BE
:103866002EF095C12FF096C130F097C131F0CEEC15
:103876002EF02AC0B4F12BC0B5F12CC0B6F12DC084
:10388600B7F1B4C1B8F1B5C1B9F1B6C1BAF1B7C1B2
:10389600BBF1B8C1ACF1B9C1ADF1BAC1AEF1BBC1B2
:1038A600AFF17CC14BF07DC14CF07EC14DF07FC1C4
:1038B6004EF0170ED8904B364C364D364E36E82E17
:1038C6005DEF1CF04B500101AC274C50AD234D5021
:1038D600AE234E50AF23170E4B6EACC14CF0ADC1AC
:1038E6004DF0AEC14EF0AFC14FF04B667DEF1CF010
:1038F60085EF1CF04F344F324E324D324C324B2E48
:1039060078EF1CF04FBE94EF1CF04F504E104D1048
:1039160006E14C04D8B092EF1CF094EF1CF0ACEF2B
:103926001CF0B4C12AF0B5C12BF0B6C12CF0B7C15A
:103936002DF07CC12EF07DC12FF079EC25F02AC048
:10394600B4F12BC0B5F12CC0B6F12DC0B7F1BCEF68
:103956001CF0ACC1B8F1ADC1B9F1AEC1BAF1AFC19D
:10396600BBF1B8C1B4F1B9C1B5F1BAC1B6F1BBC1C9
:10397600B7F188C111F089C112F08AC113F08BC169
:1039860014F0B4C115F0B5C116F0B6C117F0B7C141
:1039960018F097EC21F011C084F012C085F013C026
:1039A60086F014C087F012003EC068F03FC069F090
:1039B60040C06AF041C06BF068C080F069C081F019
:1039C6006AC082F06BC083F0000E00018015426E63
:1039D600000E8115436E800E8215446E7F0E831590
:1039E600456E800E441809E17F0E451842104310BB
:1039F600D8A400EF1DF002EF1DF030EF1DF03EC021
:103A060015F03FC016F040C017F041C018F03EC098
:103A160011F03FC012F040C013F041C014F097EC13
:103A260021F011C001F012C002F013C003F014C05F
:103A360004F03EC005F03FC006F040C007F041C0AC
:103A460008F037EC1FF001C03EF002C03FF003C0A3
:103A560040F004C041F036EF1FF083BF3FEF1DF08A
:103A660083518211811106E18005D8B03DEF1DF02A
:103A76003FEF1DF07BEF1DF0FF0E8015426EFF0E2F
:103A86008115436EFF0E8215446E7F0E8315456EBB
:103A96004250431044104510D8A454EF1DF056EF81
:103AA6001DF060EF1DF03EC03EF03FC03FF040C04D
:103AB60040F041C041F036EF1FF083BF67EF1DF0C5
:103AC60065EF1DF07BEF1DF0000EB76F210EB66F90
:103AD600AD0E016E100E026E47EC2FF001C03EF0E7
:103AE60002C03FF003C040F004C041F036EF1FF0C3
:103AF600170E426E80C043F081C044F082C045F08C
:103B060083C046F042668AEF1DF092EF1DF0463400
:103B16004632453244324332422E85EF1DF043C0D1
:103B260078F044C079F045C07AF046C07BF00001D9
:103B3600785179117A117B11D8A4A4EF1DF0A6EF64
:103B46001DF0D6EF1DF0000E646F000E656F000EBF
:103B5600666F000E676FBBEF1DF0D8908037813718
:103B660082378337010E6427000E65236623672399
:103B760082AFC0EF1DF0C2EF1DF0B0EF1DF0FF0EDB
:103B86006425426EFF0E6521436EFF0E6621446E6C
:103B9600FF0E6721456E4250785F4350795B445073
:103BA6007A5B45507B5B810E7827FF0E7923FF0EEB
:103BB6007A23FF0E7B23FF0E8015426EFF0E8115C2
:103BC600436E7F0E8215446E000E8315456E000E01
:103BD6004210806F000E4310816F800E4410826F7A
:103BE600000E4510836F78A1FBEF1DF0FDEF1DF071
:103BF60005EF1EF080518027815181238251822357
:103C0600835183237B357B337A3379337833805101
:103C16008027815181238251822383518323000E81
:103C2600606F000E616F000E626F000E636F60C002
:103C36006CF061C06DF062C06EF063C06FF0000E94
:103C46007C6F000E7D6F000E7E6F010E7F6F74EF2E
:103C56001EF060517C25706F61517D21716F62513C
:103C66007E21726F63517F21736F7051805D715138
:103C76008159725182598351800A426E7351800A6A
:103C86004258D8A049EF1EF04BEF1EF067EF1EF02A
:103C960070517C25606F71517D21616F72517E215B
:103CA600626F73517F21636F7051805F7151815BC9
:103CB6007251825B7351835B7C516C277D516D23FE
:103CC6007E516E237F516F2380518027815181233E
:103CD6008251822383518323D8907F337E337D3371
:103CE6007C337C517D117E117F11D8A47DEF1EF0AF
:103CF6007FEF1EF02CEF1EF080518111821183118F
:103D0600D8B488EF1EF08AEF1EF0EBEF1EF0000E1F
:103D1600746F000E756F800E766F3F0E776F74C0EE
:103D260032F075C033F076C034F077C035F0000E4F
:103D3600366E000E376E800E386E3F0E396EF5EC1D
:103D46002AF0D8A0A9EF1EF0ABEF1EF0EBEF1EF0A5
:103D5600000E0001746F000E756F800E766F3F0EB9
:103D6600776F000E326E000E336E800E346E3F0E8D
:103D7600356E74C036F075C037F076C038F077C04F
:103D860039F0F5EC2AF0D8B0CBEF1EF0CDEF1EF0EF
:103D9600D6EF1EF0020E00016C27000E6D236E2377
:103DA6006F23EBEF1EF0010E00016C15426E000E44
:103DB6006D15436E000E6E15446E000E6F15456E42
:103DC60042506C2743506D2344506E2345506F2359
:103DD6006CC042F06DC043F06EC044F06FC045F059
:103DE60045344532443243324232000E4224000109
:103DF600806F000E4320816F000E4420826F3F0EBD
:103E06004520836F78C042F079C043F07AC044F011
:103E16007BC045F0170ED8904236433644364536B9
:103E2600E82E0EEF1FF04250802743508123445066
:103E360082234550832380C068F081C069F082C028
:103E46006AF083C06BF068C074F069C075F06AC030
:103E560076F06BC077F074C03EF075C03FF076C068
:103E660040F077C041F012000450800B0D6E0450F4
:103E760004240F6E03AE42EF1FF044EF1FF045EF30
:103E86001FF00F800F50D8B44BEF1FF04DEF1FF00F
:103E960062EF1FF00F28D8A453EF1FF055EF1FF065
:103EA6005DEF1FF0000E016E000E026E000E036E37
:103EB600000E046E038E000E046E6AEF1FF0000EF5
:103EC600016E000E026E000E036E000E046E0850A8
:103ED600800B0E6E0D500E18D8B474EF1FF076EFEF
:103EE6001FF077EF1FF00D8C085008240E6E07AEFA
:103EF6007FEF1FF081EF1FF082EF1FF00E800E5054
:103F0600D8B488EF1FF08AEF1FF09FEF1FF00E283E
:103F1600D8A490EF1FF092EF1FF09AEF1FF0000E5B
:103F2600056E000E066E000E076E000E086E078EFA
:103F3600000E086EA7EF1FF0000E056E000E066E4F
:103F4600000E076E000E086E0F500E5CD8B0AEEF76
:103F56001FF0B0EF1FF0D7EF1FF00DACB5EF1FF05D
:103F6600B7EF1FF0B9EF1FF0800E0D1A0FC010F05B
:103F76000EC00FF010C00EF001C010F005C001F029
:103F860010C005F002C010F006C002F010C006F026
:103F960003C010F007C003F010C007F004C010F013
:103FA60008C004F010C008F0000E106E0F500EC0CE
:103FB60009F00A6A095E000E0A5A0ABEECEF1FF003
:103FC6000A5009E11A0E095CD8A0ECEF1FF0EEEFDB
:103FD6001FF025EF20F00150021003100410D8A4A2
:103FE600F7EF1FF0FAEF1FF0010EFBEF1FF0000EC8
:103FF600106E000E016E000E026E000E036E000EB5
:10400600046E0EC00FF02EEF20F010A00DEF20F082
:104016000FEF20F015EF20F0D89010300109106E48
:1040260017EF20F0D890103201A01CEF20F01EEF01
:1040360020F01FEF20F0108E0434043203320232D7
:1040460001320F2A0E500F5CD8A02CEF20F02EEF75
:1040560020F008EF20F00DBC33EF20F035EF20F014
:1040660075EF20F00F50D8A43BEF20F03DEF20F085
:1040760047EF20F0000E016E000E026E000E036E7A
:10408600000E046E96EF21F005500126065002221E
:10409600075003220850042204A054EF20F056EFE4
:1040A60020F002EF21F010A05BEF20F05DEF20F092
:1040B60063EF20F0D89010300109106E65EF20F004
:1040C600D890103201A06AEF20F06CEF20F06DEF6F
:1040D60020F0108E043404320332023201320F2AE9
:1040E60002EF21F00550015C0650025807500358B4
:1040F6000450800A096E0850800A0958D8B086EF25
:1041060020F088EF20F0B3EF20F00150055C096E37
:10411600025006580A6E035007580B6E0450085892
:104126000C6EFF0E0924016EFF0E0A20026EFF0EB2
:104136000B20036EFF0E0C20046E800E0D1A106C01
:104146001050D8A4A9EF20F0ABEF20F0BBEF20F081
:10415600010E0126000E022203220422BBEF20F0EC
:104166000550015E0650025A0750035A0850045A79
:104176000150021003100410D8A4C4EF20F0C6EFBB
:1041860020F0FBEF20F01050D8A4CCEF20F0CEEFBB
:1041960020F0FBEF20F0000E016E000E026E000E06
:1041A600036E000E046E96EF21F0D89001360236AB
:1041B6000336043610AEE2EF20F0E4EF20F0E5EF30
:1041C60020F0018010A0EAEF20F0ECEF20F0F0EFF5
:1041D60020F0D8801036F2EF20F0D89010360F502D
:1041E600D8B4F8EF20F0FAEF20F0FBEF20F00F063E
:1041F60003AE00EF21F002EF21F0D8EF20F0000E21
:104206000E6E10AE09EF21F00BEF21F023EF21F037
:1042160010C009F07F0E0916D8B414EF21F016EF7E
:1042260021F01AEF21F0010E0E6E23EF21F001A00E
:104236001FEF21F021EF21F023EF21F016EF21F0FF
:104246000E50D8B429EF21F02BEF21F056EF21F0D4
:10425600010E0126000E02220322042204A036EFDC
:1042660021F038EF21F056EF21F001C009F002C02D
:104276000AF003C00BF004C00CF00C340C320B3205
:104286000A32093209C001F00AC002F00BC003F07D
:104296000CC004F00F28D8B453EF21F055EF21F0ED
:1042A60056EF21F00F2A0F28D8B45CEF21F05EEF0D
:1042B60021F066EF21F00F50D8A464EF21F066EFED
:1042C60021F078EF21F0000E016E000E026E000E56
:1042D600036E000E046E0F50D8A474EF21F076EF33
:1042E60021F078EF21F0000E0D6E0FA07DEF21F08A
:1042F6007FEF21F082EF21F0038E83EF21F0039E02
:10430600D8900F30046E0DAE8BEF21F08DEF21F0BB
:104316008EEF21F0048E01C001F002C002F003C04E
:1043260003F004C004F012001450800B1D6E1450EC
:104336001424236E13AEA2EF21F0A4EF21F0A5EF13
:1043460021F023802350D8B4ABEF21F0ADEF21F05C
:10435600C0EF21F02328D8A4B3EF21F0B5EF21F068
:10436600BDEF21F0000E116E000E126E000E136EE0
:10437600000E146E138EC8EF21F0000E116E000EA3
:10438600126E000E136E000E146E1850800B1D1A5E
:1043960018501824226E17AED3EF21F0D5EF21F076
:1043A600D6EF21F022802250D8B4DCEF21F0DEEFE8
:1043B60021F0F1EF21F02228D8A4E4EF21F0E6EF76
:1043C60021F0EEEF21F0000E156E000E166E000EB7
:1043D600176E000E186E178EF9EF21F0000E156E8F
:1043E600000E166E000E176E000E186E2250D8B410
:1043F600FFEF21F001EF22F009EF22F02350D8A4BD
:1044060007EF22F009EF22F013EF22F0000E116EF3
:10441600000E126E000E136E000E146EABEF23F03C
:1044260017501102F3CF28F0F4CF29F028501E6E52
:104436001F6A206A216A2950246E256A266A276A1D
:1044460016501202F3CF28F0F4CF29F028501E267A
:10445600000E1F222022212229502426000E25226A
:104466002622272215501302F3CF28F0F4CF29F085
:1044760028501E26000E1F222022212229502426E3
:10448600000E25222622272220C021F01FC020F060
:104496001EC01FF01E6A15501202F3CF28F0F4CF8B
:1044A60029F028501E2629501F22000E2022000E19
:1044B600212216501102F3CF28F0F4CF29F028500C
:1044C6001E2629501F22000E2022000E212220C067
:1044D60021F01FC020F01EC01FF01E6A15501102E9
:1044E600F3CF28F0F4CF29F028501E2629501F229A
:1044F600000E2022000E212217501202F3CF28F0C0
:10450600F4CF29F02850242629502522000E2622F1
:10451600000E272216501302F3CF28F0F4CF29F00D
:104526002850242629502522000E2622000E272256
:1045360017501302F3CF28F0F4CF29F02850196E44
:1045460029501A6E1B6A1C6A1BC01CF01AC01BF08D
:1045560019C01AF0196A195024261A5025221B5020
:1045660026221C5027221EC019F01FC01AF020C098
:104576001BF021C01CF0190EC6EF22F0D8901C3299
:104586001B321A321932E82EC1EF22F019502426B6
:104596001A5025221B5026221C50272220C021F00B
:1045A6001FC020F01EC01FF01E6A225023C019F043
:1045B6001A6A1926000E1A22820E1924286EFF0E78
:1045C6001A20296EFCEF22F0D8902436253626369E
:1045D600273621AEF1EF22F0F3EF22F0F4EF22F0CE
:1045E6002480D8901E361F36203621362806D8A0BD
:1045F600290626AE01EF23F003EF23F0E7EF22F0C2
:10460600000E226E21AE0AEF23F00CEF23F030EFFE
:1046160023F0FF0E1E14196EFF0E1F141A6EFF0EE6
:1046260020141B6E7F0E21141C6E19501A101B10BD
:104636001C10D8B421EF23F023EF23F027EF23F04B
:10464600010E226E30EF23F024A02CEF23F02EEF84
:1046560023F030EF23F023EF23F02250D8B436EFC7
:1046660023F038EF23F05CEF23F0010E2426000E32
:1046760025222622272227A043EF23F045EF23F009
:104686005CEF23F024C019F025C01AF026C01BF0F9
:1046960027C01CF01C341C321B321A32193219C0C6
:1046A60024F01AC025F01BC026F01CC027F0284AAB
:1046B600292A29BE67EF23F0295008E12828D8A027
:1046C60067EF23F069EF23F073EF23F0000E246EFB
:1046D600000E256E800E266E7F0E276EA1EF23F04C
:1046E60029BE80EF23F0295006E12804D8B07EEFDA
:1046F60023F080EF23F08CEF23F0000E246E000EE3
:10470600256E000E266E000E276E000E1D6EA1EFA2
:1047160023F028C023F0FF0E2416FF0E25167F0E69
:104726002616000E271623A09BEF23F09DEF23F0FD
:104736009EEF23F0268ED8902330276E1D50271229
:1047460024C011F025C012F026C013F027C014F0C3
:1047560012003550800B426E35503524496E34AE0A
:10476600B7EF23F0B9EF23F0BAEF23F049804950B1
:10477600D8B4C0EF23F0C2EF23F0D7EF23F04928D7
:10478600D8A4C8EF23F0CAEF23F0D2EF23F0000E2F
:10479600326E000E336E000E346E000E356E348EA1
:1047A600000E356EDFEF23F0000E326E000E336E14
:1047B600000E346E000E356E3950800B421A395099
:1047C60039244A6E38AEEAEF23F0ECEF23F0EDEF32
:1047D60023F04A804A50D8B4F3EF23F0F5EF23F0E4
:1047E6000AEF24F04A28D8A4FBEF23F0FDEF23F0CC
:1047F60005EF24F0000E366E000E376E000E386E92
:10480600000E396E388E000E396E12EF24F0000E4F
:10481600366E000E376E000E386E000E396E36504C
:10482600371038103910D8A41BEF24F01DEF24F0F0
:1048360035EF24F0000E326E000E336E000E346E2D
:10484600000E356E800E34127F0E35124250351230
:1048560032C032F033C033F034C034F035C035F0F6
:1048660078EF25F04950D8A43BEF24F03DEF24F033
:1048760047EF24F0000E326E000E336E000E346EDB
:10488600000E356E78EF25F04A5049C03AF03B6A83
:104896003A5E000E3B5A7F0E3A24436E000E3B20D2
:1048A600446E32C03EF033C03FF034C040F035C0F5
:1048B60041F0000E326E000E336E000E346E000EA6
:1048C600356E000E456E000E466E000E476E000EEB
:1048D600486E000E4A6EA8EF24F04A50D8B476EF20
:1048E60024F078EF24F08FEF24F0D8903E363F3650
:1048F60040364136D890323633363436353648AEC1
:1049060087EF24F089EF24F08AEF24F03280D890E4
:10491600453646364736483636503E5C37503F5861
:104926003850405839504158D8A09CEF24F09EEF9B
:1049360024F0A7EF24F0488C36503E5E37503F5A9D
:104946003850405A3950415A4A2A190E4A64AEEF35
:1049560024F0B0EF24F070EF24F03E503F104010EA
:104966004110D8B4B9EF24F0BBEF24F0D3EF24F014
:104976004580D3EF24F0D890323633363436353688
:1049860048AEC8EF24F0CAEF24F0CBEF24F0328013
:10499600D89045364636473648364306D8A04406AC
:1049A60034AED8EF24F0DAEF24F0BEEF24F0000E98
:1049B6004A6E48AEE1EF24F0E3EF24F007EF25F06E
:1049C600FF0E45143A6EFF0E46143B6EFF0E47145B
:1049D6003C6E7F0E48143D6E3A503B103C103D1025
:1049E600D8B4F8EF24F0FAEF24F0FEEF24F0010E2D
:1049F6004A6E07EF25F032A003EF25F005EF25F00C
:104A060007EF25F0FAEF24F04A50D8B40DEF25F061
:104A16000FEF25F033EF25F0010E3226000E33227C
:104A26003422352235A01AEF25F01CEF25F033EF9E
:104A360025F032C03AF033C03BF034C03CF035C00C
:104A46003DF03D343D323C323B323A323AC032F0F0
:104A56003BC033F03CC034F03DC035F0434A442AF5
:104A660044BE3EEF25F0445008E14328D8A03EEF6F
:104A760025F040EF25F04BEF25F0000E446E43681D
:104A8600000E326E000E336E000E346E000E356E62
:104A960044BE58EF25F0445006E14304D8B056EF23
:104AA60025F058EF25F066EF25F0000E446E000E57
:104AB600436E000E326E000E336E000E346E000E24
:104AC600356E000E426E43C049F049A06DEF25F0E9
:104AD6006FEF25F072EF25F0348E73EF25F0349EDC
:104AE600D8904930356E29EF24F012002AC038F0EC
:104AF6002BC039F02CC03AF02DC03BF02FBE8DEF05
:104B060025F02F5009E1800E2E5CD8A08DEF25F000
:104B16008FEF25F0EDEF25F038C011F039C012F017
:104B26003AC013F03BC014F0000E156E000E166E60
:104B3600000E176E7F0E186E97EC21F011C038F03C
:104B460012C039F013C03AF014C03BF0810E2E2685
:104B5600FF0E2F222FBEB9EF25F02F5009E1800E50
:104B66002E5CD8A0B9EF25F0BBEF25F057EF26F065
:104B760038C011F039C012F03AC013F03BC014F03F
:104B8600000E156E000E166E000E176E7F0E186E56
:104B960097EC21F011C038F012C039F013C03AF08A
:104BA60014C03BF0810E2E26FF0E2F222FBEE5EFFE
:104BB60025F02F5009E1800E2E5CD8A0E5EF25F0F8
:104BC600E7EF25F057EF26F0000E2F6E7F0E2E6EC4
:104BD60057EF26F02FAEF9EF25F0820E2E5CFF0E72
:104BE6002F58D8B0F9EF25F0FBEF25F057EF26F058
:104BF60038C011F039C012F03AC013F03BC014F0BF
:104C0600000E156E000E166E800E176E0C0E186EC8
:104C160097EC21F011C038F012C039F013C03AF009
:104C260014C03BF0660E2E26000E2F222FAE25EF67
:104C360026F0820E2E5CFF0E2F58D8B025EF26F0F8
:104C460027EF26F057EF26F038C011F039C012F0E2
:104C56003AC013F03BC014F0000E156E000E166E2F
:104C6600800E176E0C0E186E97EC21F011C038F0FE
:104C760012C039F013C03AF014C03BF0660E2E266F
:104C8600000E2F222FAE51EF26F0820E2E5CFF0E65
:104C96002F58D8B051EF26F053EF26F057EF26F0F5
:104CA600FF0E2F6E820E2E6E7F0E2E24306E000E9D
:104CB6002F20316E326A336A170ED890303631366D
:104CC60032363336E82E60EF26F030C034F031C08D
:104CD60035F032C036F033C037F034C011F035C08D
:104CE60012F036C013F037C014F038C015F039C0D2
:104CF60016F03AC017F03BC018F097EC21F011C03F
:104D06002AF012C02BF013C02CF014C02DF02AC0CC
:104D16002AF02BC02BF02CC02CF02DC02DF0120049
:104D2600000E0001AB6F010EAA6F7EEF27F0000E9A
:104D36000D6EAAC00EF0ABC00FF0010E6CEC2DF09C
:104D4600020E046EAF0E056E100E066E010E90EC8E
:104D56002CF0030E0D6E000E0F6E000E0E6E010E81
:104D660077EC2BF0070E046E990E056E100E066E8C
:104D7600010E90EC2CF00001AA4BAB2B000E0D6E31
:104D8600AAC00EF0ABC00FF0020E6CEC2DF0020EB6
:104D9600046EAF0E056E100E066E020E90EC2CF031
:104DA600030E0D6E000E0F6E000E0E6E020E77ECE9
:104DB6002BF0070E046E990E056E100E066E020E8F
:104DC60090EC2CF0000E0001A76F030EA66FAAC090
:104DD6005BF0ABC05CF0D8905B365C36D8905B3647
:104DE6005C36D8905B365C364E0E5B24D96E040E6C
:104DF6005C20DA6EDECF90F0DDCF91F0A6C092F0A7
:104E0600A7C093F0010E946F030E956FC6EC29F0C0
:104E1600AAC05DF0ABC05EF0D8905D365E36D89025
:104E26005D365E36D8905D365E364E0E5D24D96EA2
:104E3600040E5E20DA6E000190C0DEFF91C0DDFF39
:104E4600A607D8A0A707A7BF2DEF27F02BEF27F0BF
:104E5600EAEF26F0070E046E990E056E100E066E2A
:104E6600010E90EC2CF0000E0001A96F030EA86F46
:104E7600AAC05BF0ABC05CF0D8905B365C36D890CD
:104E86005B365C36D8905B365C364E0E5B24D96E4C
:104E9600040E5C20DA6EDECF90F0DDCF91F0A8C074
:104EA60092F0A9C093F0020E946F030E956FC6ECB4
:104EB60029F0AAC05DF0ABC05EF0D8905D365E36D4
:104EC600D8905D365E36D8905D365E364E0E5D24E1
:104ED600D96E040E5E20DA6E000190C0DEFF91C02E
:104EE600DDFFA807D8A0A907A9BF7EEF27F07CEFB2
:104EF60027F03BEF27F0AA51A45DA551800A5B6E0F
:104F0600AB51800A5B58D8B08BEF27F08DEF27F0B6
:104F16009AEF26F01200096E0950D8B495EF27F0E3
:104F260097EF27F0B9EF27F004BE9EEF27F09CEF2E
:104F360027F0B9EF27F001C005F002C006F003C064
:104F460007F004C008F0051E061E071E081E052AE7
:104F5600000E06220722082205C00BF006C00CF040
:104F660007C00DF008C00EF0C1EF27F001C00BF02E
:104F760002C00CF003C00DF004C00EF00150021088
:104F860003100410D8A4CAEF27F0CCEF27F0D6EF11
:104F960027F0000E016E000E026E000E036E000E6C
:104FA600046E67EF28F0960E0A6EE0EF27F00A2AE5
:104FB600D8900E320D320C320B32000E0B14056EE9
:104FC600000E0C14066E000E0D14076EFE0E0E1467
:104FD600086E0550061007100810D8A4F5EF27F044
:104FE600F7EF27F0DAEF27F005EF28F00A2A010E8F
:104FF6000B26000E0C220D220E22D8900E320D32F8
:105006000C320B32000E0B14056E000E0C14066EDD
:10501600000E0D14076EFF0E0E14086E05500610D6
:1050260007100810D8A41AEF28F01CEF28F0F9EFA3
:1050360027F024EF28F00A06D8900B360C360D36EA
:105046000E360DBE29EF28F02BEF28F033EF28F0AF
:10505600020E0A6031EF28F033EF28F01EEF28F039
:105066000AB038EF28F03AEF28F03BEF28F00D9E13
:10507600D8900A320AC005F0066A076A086A05C0AF
:1050860008F0076A066A056A05500B1206500C12EC
:1050960007500D1208500E120950D8B455EF28F0DB
:1050A60057EF28F05FEF28F004BE5EEF28F05CEFC4
:1050B60028F05FEF28F00E8E0BC001F00CC002F056
:1050C6000DC003F00EC004F0120058EC2FF0000ED5
:1050D6000001A56F030EA46F000E046EB10E056EDF
:1050E600100E066E010E90EC2CF0020E0D6EBEC078
:1050F6000EF0BFC00FF0010E77EC2BF0080E046E19
:10510600960E056E100E066E010E90EC2CF00A0E31
:105116000D6EC0C00EF0C1C00FF0010E77EC2BF083
:10512600000E046EAE0E056E100E066E020E90ECAC
:105136002CF0020E0D6EBCC00EF0BDC00FF0020EBC
:1051460077EC2BF0000E0001A76F030EA66FBEC012
:1051560090F0BFC091F0A6C092F0A7C093F0010EE8
:10516600946F020E956FC6EC29F090C0BEF091C008
:10517600BFF00001A607D8A0A707A7BFC7EF28F072
:10518600C5EF28F0AAEF28F0A4C0A8F0A5C0A9F0A2
:10519600A9BFD2EF28F0D0EF28F0D4EF28F0ECEF3B
:1051A60028F0C0C090F0C1C091F0A8C092F0A9C08C
:1051B60093F0010E946F0A0E956FC6EC29F090C01D
:1051C600C0F091C0C1F00001A807D8A0A907CBEF95
:1051D60028F0A4C0AAF0A5C0ABF0ABBFF7EF28F04B
:1051E600F5EF28F0F9EF28F011EF29F0BCC090F0A8
:1051F600BDC091F0AAC092F0ABC093F0020E946FBE
:10520600020E956FC6EC29F090C0BCF091C0BDF0BF
:105216000001AA07D8A0AB07F0EF28F082A016EF8E
:1052260029F018EF29F011EF29F0DDEC2CF012002F
:10523600000E0001A36F000EA26F0001A051902581
:105246009E6FA15191219F6F95C00DF09EC00EF0EB
:105256009FC00FF094516CEC2DF042EF29F081AA1B
:1052660037EF29F039EF29F042EF29F00001A0517C
:105276009025906FA1519121916FC5EF29F081ACD6
:1052860047EF29F049EF29F032EF29F0410E5A6E27
:10529600EE0EE82EFED75A2EFCD700D00001A3BF93
:1052A60060EF29F0A35107E1090EA25DD8B05EEFC9
:1052B60029F060EF29F064EF29F0A24BA32B68EFE9
:1052C60029F0000EA36F000EA26F92C001F093C0EA
:1052D60002F0000E02BEFF0E036E046E010E8EEC8F
:1052E60027F001C096F002C097F003C098F004C002
:1052F60099F096C088F097C089F098C08AF099C056
:105306008BF0000E0001846F000E856F200E866FF5
:10531600410E876F5BEC08F084C09AF085C09BF065
:1053260086C09CF087C09DF09AC015F09BC016F011
:105336009CC017F09DC018F0A2C001F0A3C002F0F7
:10534600000E02BEFF0E036E046E010E8EEC27F0F9
:1053560001C011F002C012F003C013F004C014F033
:1053660097EC21F011C08CF012C08DF013C08EF0B6
:1053760014C08FF071EC2AF08CC0A0F08DC0A1F0A3
:1053860020EF29F01200000E0001A36F000EA26F9D
:105396000001A05190259E6FA15191219F6F95C04C
:1053A6000DF09EC00EF09FC00FF0945177EC2BF0DD
:1053B600EDEF29F081AAE2EF29F0E4EF29F0EDEF15
:1053C60029F00001A0519025906FA1519121916F74
:1053D60070EF2AF081ACF2EF29F0F4EF29F0DDEF5F
:1053E60029F0410E5A6EEE0EE82EFED75A2EFCD745
:1053F60000D00001A3BF0BEF2AF0A35107E1090E6D
:10540600A25DD8B009EF2AF00BEF2AF00FEF2AF0D1
:10541600A24BA32B13EF2AF0000EA36F000EA26F70
:1054260092C001F093C002F0000E02BEFF0E036EA2
:10543600046E010E8EEC27F001C096F002C097F0C4
:1054460003C098F004C099F096C088F097C089F020
:1054560098C08AF099C08BF0000E0001846F000E90
:10546600856F200E866F410E876F5BEC08F084C057
:105476009AF085C09BF086C09CF087C09DF09AC0CC
:1054860015F09BC016F09CC017F09DC018F0A2C086
:1054960001F0A3C002F0000E02BEFF0E036E046E02
:1054A600010E8EEC27F001C011F002C012F003C00D
:1054B60013F004C014F097EC21F011C08CF012C068
:1054C6008DF013C08EF014C08FF071EC2AF08CC0F2
:1054D600A0F08DC0A1F0CBEF29F0120000018E35AF
:1054E6008F35596E5950D8A47BEF2AF07DEF2AF0FC
:1054F60087EF2AF0000E8C6F000E8D6F000E8E6FF8
:10550600000E8F6FF4EF2AF08CC054F08DC055F06A
:105516008EC056F08FC057F0200E97EF2AF0D89025
:105526005732563255325432E82E92EF2AF0545002
:10553600586E8E8FFF0E8C17FF0E8D17FF0E8E176F
:10554600000E8F17960E595E59BEAEEF2AF0ACEFDD
:105556002AF0C4EF2AF05950800A970FD8B0B6EF58
:105566002AF0B8EF2AF0BAEF2AF07DEF2AF0D890A9
:105576008F338E338D338C33593EBAEF2AF0DCEFFE
:105586002AF01F0E5964CAEF2AF0CCEF2AF0D4EFA6
:105596002AF07DEF2AF0D8908C378D378E378F37EB
:1055A60059065950D8A4DAEF2AF0DCEF2AF0CEEFEC
:1055B6002AF05850D8B4E2EF2AF0E4EF2AF0ECEFE4
:1055C6002AF08F1F8E1F8D1F8C6D000E8D238E234C
:1055D6008F238CC08CF08DC08DF08EC08EF08FC066
:1055E6008FF01200000E32143A6E000E33143B6E2A
:1055F600800E34143C6E7F0E35143D6E3A503B10CF
:105606003C103D10D8A40AEF2BF00CEF2BF014EF52
:105616002BF0000E326E000E336E000E346E000E4E
:10562600356E000E36143A6E000E37143B6E800E41
:1056360038143C6E7F0E39143D6E3A503B103C10C8
:105646003D10D8A429EF2BF02BEF2BF033EF2BF0E6
:10565600000E366E000E376E000E386E000E396E76
:1056660035AE38EF2BF03AEF2BF043EF2BF0326CE0
:10567600331ED8B0332A341ED8B0342A800E35569D
:1056860039AE48EF2BF04AEF2BF053EF2BF0366C88
:10569600371ED8B0372A381ED8B0382A800E395669
:1056A600000E321A000E331A000E341A800E351A06
:1056B600000E361A000E371A000E381A800E391AE6
:1056C6003650325C37503358385034583950355884
:1056D600D8B070EF2BF072EF2BF075EF2BF0D8905F
:1056E60076EF2BF0D8801200106E0EC001F00FC0BE
:1056F60002F0030E046EE80E036EAEEC2DF00150C0
:10570600300F0001EC6F000E046E640E036E0EC0C7
:1057160001F00FC002F0AEEC2DF001C008F002C09F
:1057260009F0000E0B6E0A0E0A6EE8EC2DF008501A
:10573600300F0001ED6F000E046E0A0E036E0EC0F0
:1057460001F00FC002F0AEEC2DF001C008F002C06F
:1057560009F0000E0B6E0A0E0A6EE8EC2DF00850EA
:10576600300F0001EE6F0EC008F00FC009F0000EFA
:105776000B6E0A0E0A6EE8EC2DF00850300F000191
:10578600EF6F000EF06FEC0E016E000E026E4BEC2A
:105796002EF00009D8B4D2EF2BF0D4EF2BF0DFEFC8
:1057A6002BF00DC004F0EC0E056E000E066E1050C8
:1057B60090EC2CF0E8EF2BF00DC004F0A90E056E6E
:1057C600100E066E105090EC2CF01200000E046EB7
:1057D6008C0E056E100E066E010E90EC2CF0000E6F
:1057E6000001AD6F010EAC6FB8C090F0B9C091F07A
:1057F600ACC092F0ADC093F0010E946F0C0E956F95
:105806001BEC29F090C0B8F091C0B9F0410E5F6E64
:10581600EE0EE82EFED75F2EFCD700D00001AC07B7
:10582600D8A0AD07ADBF1CEF2CF01AEF2CF0F7EFA8
:105836002BF058EC2FF00001B9BF2DEF2CF0B95129
:1058460007E13D0EB85DD8B02BEF2CF02DEF2CF014
:1058560035EF2CF0B8C0A4F0B9C0A5F093EC26F053
:105866003EEF2CF0000E046E7D0E056E100E066ED9
:10587600010E90EC2CF0120027EC2DF0DDEC2CF054
:1058860008C0B0F009C0B1F058EC2FF06DEF2CF065
:10589600000E046E7D0E056E100E066E010E90EC67
:1058A6002CF08EEF2CF068EC28F08EEF2CF0E9EC63
:1058B6002BF08EEF2CF05DEC2FF08EEF2CF0000E1F
:1058C600046E7D0E056E100E066E010E90EC2CF029
:1058D6008EEF2CF0010E0001B025AE6F000EB12147
:1058E600AF6FAF51000AD8B47BEF2CF062EF2CF00B
:1058F600AE51010AD8B44BEF2CF0030AD8B456EFD8
:105906002CF0010AD8B45AEF2CF0070AD8B45EEF8F
:105916002CF062EF2CF000EF00F0076E0704D8A41D
:1059260097EF2CF099EF2CF09FEF2CF004508009A4
:10593600A3EC2EF0C3EF2CF0020E0718D8A4A6EFA6
:105946002CF0A8EF2CF0C3EF2CF00450C009A3EC08
:105956002EF0C3EF2CF005C0F6FF06C0F7FF000ED1
:10596600F86E0F0EF76403D00800F55005D0F6CF99
:10597600E9FFF7CFEAFFEF5078EC2EF0054A062A4A
:1059860005C0F6FF06C0F7FF000EF86E0F0EF764AF
:1059960003D00800F55005D0F6CFE9FFF7CFEAFFB0
:1059A600EF500009D8A4DAEF2CF0DCEF2CF0AEEFC4
:1059B6002CF01200000E046EBAC00AF0BBC00BF049
:1059C6000A3A0B3AF00E0B160A500F0B0B12F00E9A
:1059D6000A16BC0E0A24056E010E0B20066E010E79
:1059E60090EC2CF004EF2DF081A0FCEF2CF0FEEFF4
:1059F6002CF004EF2DF0BAC008F0BBC009F026EF7A
:105A06002DF081AA09EF2DF00BEF2DF0F7EF2CF01A
:105A16000001BBBF1AEF2DF0BB5107E1030EBA5DC3
:105A2600D8B018EF2DF01AEF2DF01EEF2DF0BA4B6F
:105A3600BB2B22EF2DF0000EBB6F000EBA6F58EC99
:105A46002FF0DDEF2CF01200000E956E000E8C6E1E
:105A5600070E046E7D0EE82EFED7042EFCD700F04E
:105A6600030EA3EC2EF0210E046E760EE82EFED762
:105A7600042EFCD700D0030EA3EC2EF0210E046EEC
:105A8600760EE82EFED7042EFCD700D0030EA3EC2C
:105A96002EF0210E046E760EE82EFED7042EFCD7CD
:105AA60000D0030EA3EC2EF0210E046E760EE82E27
:105AB600FED7042EFCD700D0020EA3EC2EF0280E43
:105AC600A3EC2EF0140EA3EC2EF00C0EA3EC2EF08D
:105AD6001200106E0EC001F00FC002F0000E046E30
:105AE6000A0E036EAEEC2DF00150300F0001F16F7F
:105AF6000EC008F00FC009F0000E0B6E0A0E0A6EFB
:105B0600E8EC2DF00850300F0001F26F000EF36F35
:105B1600F10E016E000E026E4BEC2EF00009D8B4A9
:105B260097EF2DF099EF2DF0A4EF2DF00DC004F0B6
:105B3600F10E056E000E066E105090EC2CF0ADEFD7
:105B46002DF00DC004F0A30E056E100E066E10505B
:105B560090EC2CF01200000E066E000E056E03503F
:105B66000410D8B4B9EF2DF0BBEF2DF0E3EF2DF014
:105B7600010E076EC3EF2DF0D89003360436072AC0
:105B860004AEC8EF2DF0CAEF2DF0BFEF2DF0D89080
:105B9600053606360350015C04500258D8A0D6EFED
:105BA6002DF0D8EF2DF0DDEF2DF00350015E0450FF
:105BB600025A0580D89004320332072ECAEF2DF020
:105BC60005C001F006C002F012000A500B10D8B44E
:105BD600EFEF2DF0F1EF2DF015EF2EF0010E0C6E1C
:105BE600F9EF2DF0D8900A360B360C2A0BAEFEEFE5
:105BF6002DF000EF2EF0F5EF2DF00A50085C0B505B
:105C06000958D8A009EF2EF00BEF2EF00FEF2EF06B
:105C16000A50085E0B50095AD8900B320A320C2EE5
:105C260000EF2EF008C008F009C009F01200E20EDD
:105C3600F66E5D0EF76E000EF86E01EEBCF010EE1D
:105C460040F00900F5CFEEFFE550E150FAE1B80E5D
:105C5600F66E5E0EF76E000EF86E0900F5CFF4F0E4
:105C66000900F5CFF5F001EEFCF014EE32F0EE6A25
:105C7600E550E150FCE1E250FAE100EEB2F0420EEE
:105C8600EE6AE806FDE1000EF86E00013FEF2CF02B
:105C96006AEF2EF001C0D9FF02C0DAFF2F0EDF64D3
:105CA60057EF2EF059EF2EF065EF2EF001C0D9FF19
:105CB60002C0DAFF390EDF6463EF2EF065EF2EF0D7
:105CC60068EF2EF0000E77EF2EF0014A022A01C08F
:105CD600D9FF02C0DAFFDF50D8A474EF2EF076EFBA
:105CE6002EF04DEF2EF0010E1200036E8C848CCF39
:105CF60001F00F0E01160350F00B01108C6E8C860E
:105D0600210E016E760EE82EFED7012EFCD700D0AE
:105D16008C968CCF01F00F0E011603C002F00F0E09
:105D260002160238F00B01108C6E8C86210E016E65
:105D3600760EE82EFED7012EFCD700D08C961200E8
:105D4600036E8C948CCF01F00F0E01160350F00BEE
:105D560001108C6E8C86210E016E760EE82EFED713
:105D6600012EFCD700D08C968CCF01F00F0E0116B9
:105D760003C002F00F0E02160238F00B01108C6EF3
:105D86008C86210E016E760EE82EFED7012EFCD7EC
:105D960000D08C961200000E2E1A000E2F1A000E3E
:105DA600301A800E311A2AC001F02BC002F02CC026
:105DB60003F02DC004F02EC005F02FC006F030C051
:105DC60007F031C008F037EC1FF001C02AF002C01E
:105DD6002BF003C02CF004C02DF0120057454C43A5
:105DE6004F4D45000000000000000000312E4C4FD2
:105DF6004F4D2053455454494E475300322E444884
:105E06004F54492053455454494E4753332E524517
:105E16005345542053455454494E4753015002109C
:105E260003100410D8B41AEF2FF01CEF2FF024EF54
:105E36002FF0000E011A000E021A000E031A800E31
:105E4600041A01C001F002C002F003C003F004C04E
:105E560004F01200B2C005F0B3C006F0B4C007F0FB
:105E6600B5C008F001C005F002C006F003C007F097
:105E760004C008F0089E05C001F006C002F007C085
:105E860003F008C004F01200FF0E056EFF0E066E4A
:105E9600FF0E076E7F0E086E05C001F006C002F009
:105EA60007C003F008C004F01200010EA3EC2EF0A8
:065EB6001200F06412006E
:020000040020DA
:08000000FFFFFFFFFFFFFFFF00
:020000040030CA
:0E000000FFE2B03CFF2585FF0FC00FE00F4070
:00000001FF
